{
  "_format": "hh-sol-artifact-1",
  "contractName": "RiveraAutoCompoundingVaultV1",
  "sourceName": "src/vaults/RiveraAutoCompoundingVaultV1.sol",
  "abi": [
    {
      "inputs": [
        {
          "internalType": "string",
          "name": "_name",
          "type": "string"
        },
        {
          "internalType": "string",
          "name": "_symbol",
          "type": "string"
        },
        {
          "internalType": "uint256",
          "name": "_approvalDelay",
          "type": "uint256"
        }
      ],
      "stateMutability": "nonpayable",
      "type": "constructor"
    },
    {
      "anonymous": false,
      "inputs": [
        {
          "indexed": true,
          "internalType": "address",
          "name": "owner",
          "type": "address"
        },
        {
          "indexed": true,
          "internalType": "address",
          "name": "spender",
          "type": "address"
        },
        {
          "indexed": false,
          "internalType": "uint256",
          "name": "value",
          "type": "uint256"
        }
      ],
      "name": "Approval",
      "type": "event"
    },
    {
      "anonymous": false,
      "inputs": [
        {
          "indexed": true,
          "internalType": "address",
          "name": "user",
          "type": "address"
        },
        {
          "indexed": false,
          "internalType": "uint256",
          "name": "amount",
          "type": "uint256"
        },
        {
          "indexed": false,
          "internalType": "uint256",
          "name": "tvl",
          "type": "uint256"
        }
      ],
      "name": "Deposit",
      "type": "event"
    },
    {
      "anonymous": false,
      "inputs": [
        {
          "indexed": false,
          "internalType": "uint8",
          "name": "version",
          "type": "uint8"
        }
      ],
      "name": "Initialized",
      "type": "event"
    },
    {
      "anonymous": false,
      "inputs": [
        {
          "indexed": false,
          "internalType": "address",
          "name": "implementation",
          "type": "address"
        }
      ],
      "name": "NewStratCandidate",
      "type": "event"
    },
    {
      "anonymous": false,
      "inputs": [
        {
          "indexed": true,
          "internalType": "address",
          "name": "previousOwner",
          "type": "address"
        },
        {
          "indexed": true,
          "internalType": "address",
          "name": "newOwner",
          "type": "address"
        }
      ],
      "name": "OwnershipTransferred",
      "type": "event"
    },
    {
      "anonymous": false,
      "inputs": [
        {
          "indexed": true,
          "internalType": "address",
          "name": "from",
          "type": "address"
        },
        {
          "indexed": true,
          "internalType": "address",
          "name": "to",
          "type": "address"
        },
        {
          "indexed": false,
          "internalType": "uint256",
          "name": "value",
          "type": "uint256"
        }
      ],
      "name": "Transfer",
      "type": "event"
    },
    {
      "anonymous": false,
      "inputs": [
        {
          "indexed": false,
          "internalType": "address",
          "name": "implementation",
          "type": "address"
        }
      ],
      "name": "UpgradeStrat",
      "type": "event"
    },
    {
      "anonymous": false,
      "inputs": [
        {
          "indexed": true,
          "internalType": "address",
          "name": "user",
          "type": "address"
        },
        {
          "indexed": false,
          "internalType": "uint256",
          "name": "amount",
          "type": "uint256"
        },
        {
          "indexed": false,
          "internalType": "uint256",
          "name": "tvl",
          "type": "uint256"
        }
      ],
      "name": "Withdraw",
      "type": "event"
    },
    {
      "inputs": [
        {
          "internalType": "address",
          "name": "owner",
          "type": "address"
        },
        {
          "internalType": "address",
          "name": "spender",
          "type": "address"
        }
      ],
      "name": "allowance",
      "outputs": [
        {
          "internalType": "uint256",
          "name": "",
          "type": "uint256"
        }
      ],
      "stateMutability": "view",
      "type": "function"
    },
    {
      "inputs": [],
      "name": "approvalDelay",
      "outputs": [
        {
          "internalType": "uint256",
          "name": "",
          "type": "uint256"
        }
      ],
      "stateMutability": "view",
      "type": "function"
    },
    {
      "inputs": [
        {
          "internalType": "address",
          "name": "spender",
          "type": "address"
        },
        {
          "internalType": "uint256",
          "name": "amount",
          "type": "uint256"
        }
      ],
      "name": "approve",
      "outputs": [
        {
          "internalType": "bool",
          "name": "",
          "type": "bool"
        }
      ],
      "stateMutability": "nonpayable",
      "type": "function"
    },
    {
      "inputs": [],
      "name": "available",
      "outputs": [
        {
          "internalType": "uint256",
          "name": "",
          "type": "uint256"
        }
      ],
      "stateMutability": "view",
      "type": "function"
    },
    {
      "inputs": [],
      "name": "balance",
      "outputs": [
        {
          "internalType": "uint256",
          "name": "",
          "type": "uint256"
        }
      ],
      "stateMutability": "view",
      "type": "function"
    },
    {
      "inputs": [
        {
          "internalType": "address",
          "name": "account",
          "type": "address"
        }
      ],
      "name": "balanceOf",
      "outputs": [
        {
          "internalType": "uint256",
          "name": "",
          "type": "uint256"
        }
      ],
      "stateMutability": "view",
      "type": "function"
    },
    {
      "inputs": [],
      "name": "decimals",
      "outputs": [
        {
          "internalType": "uint8",
          "name": "",
          "type": "uint8"
        }
      ],
      "stateMutability": "view",
      "type": "function"
    },
    {
      "inputs": [
        {
          "internalType": "address",
          "name": "spender",
          "type": "address"
        },
        {
          "internalType": "uint256",
          "name": "subtractedValue",
          "type": "uint256"
        }
      ],
      "name": "decreaseAllowance",
      "outputs": [
        {
          "internalType": "bool",
          "name": "",
          "type": "bool"
        }
      ],
      "stateMutability": "nonpayable",
      "type": "function"
    },
    {
      "inputs": [
        {
          "internalType": "uint256",
          "name": "_amount",
          "type": "uint256"
        }
      ],
      "name": "deposit",
      "outputs": [],
      "stateMutability": "nonpayable",
      "type": "function"
    },
    {
      "inputs": [],
      "name": "depositAll",
      "outputs": [],
      "stateMutability": "nonpayable",
      "type": "function"
    },
    {
      "inputs": [],
      "name": "earn",
      "outputs": [],
      "stateMutability": "nonpayable",
      "type": "function"
    },
    {
      "inputs": [],
      "name": "getPricePerFullShare",
      "outputs": [
        {
          "internalType": "uint256",
          "name": "",
          "type": "uint256"
        }
      ],
      "stateMutability": "view",
      "type": "function"
    },
    {
      "inputs": [],
      "name": "getStratProposal",
      "outputs": [
        {
          "components": [
            {
              "internalType": "address",
              "name": "implementation",
              "type": "address"
            },
            {
              "internalType": "uint256",
              "name": "proposedTime",
              "type": "uint256"
            }
          ],
          "internalType": "struct StratCandidate",
          "name": "",
          "type": "tuple"
        }
      ],
      "stateMutability": "view",
      "type": "function"
    },
    {
      "inputs": [
        {
          "internalType": "address",
          "name": "_token",
          "type": "address"
        }
      ],
      "name": "inCaseTokensGetStuck",
      "outputs": [],
      "stateMutability": "nonpayable",
      "type": "function"
    },
    {
      "inputs": [
        {
          "internalType": "address",
          "name": "spender",
          "type": "address"
        },
        {
          "internalType": "uint256",
          "name": "addedValue",
          "type": "uint256"
        }
      ],
      "name": "increaseAllowance",
      "outputs": [
        {
          "internalType": "bool",
          "name": "",
          "type": "bool"
        }
      ],
      "stateMutability": "nonpayable",
      "type": "function"
    },
    {
      "inputs": [
        {
          "internalType": "contract IStrategy",
          "name": "_strategy",
          "type": "address"
        }
      ],
      "name": "init",
      "outputs": [],
      "stateMutability": "nonpayable",
      "type": "function"
    },
    {
      "inputs": [],
      "name": "name",
      "outputs": [
        {
          "internalType": "string",
          "name": "",
          "type": "string"
        }
      ],
      "stateMutability": "view",
      "type": "function"
    },
    {
      "inputs": [],
      "name": "owner",
      "outputs": [
        {
          "internalType": "address",
          "name": "",
          "type": "address"
        }
      ],
      "stateMutability": "view",
      "type": "function"
    },
    {
      "inputs": [
        {
          "internalType": "address",
          "name": "_implementation",
          "type": "address"
        }
      ],
      "name": "proposeStrat",
      "outputs": [],
      "stateMutability": "nonpayable",
      "type": "function"
    },
    {
      "inputs": [],
      "name": "renounceOwnership",
      "outputs": [],
      "stateMutability": "nonpayable",
      "type": "function"
    },
    {
      "inputs": [],
      "name": "stake",
      "outputs": [
        {
          "internalType": "contract IERC20",
          "name": "",
          "type": "address"
        }
      ],
      "stateMutability": "view",
      "type": "function"
    },
    {
      "inputs": [],
      "name": "stratCandidate",
      "outputs": [
        {
          "internalType": "address",
          "name": "implementation",
          "type": "address"
        },
        {
          "internalType": "uint256",
          "name": "proposedTime",
          "type": "uint256"
        }
      ],
      "stateMutability": "view",
      "type": "function"
    },
    {
      "inputs": [],
      "name": "strategy",
      "outputs": [
        {
          "internalType": "contract IStrategy",
          "name": "",
          "type": "address"
        }
      ],
      "stateMutability": "view",
      "type": "function"
    },
    {
      "inputs": [],
      "name": "symbol",
      "outputs": [
        {
          "internalType": "string",
          "name": "",
          "type": "string"
        }
      ],
      "stateMutability": "view",
      "type": "function"
    },
    {
      "inputs": [],
      "name": "totalSupply",
      "outputs": [
        {
          "internalType": "uint256",
          "name": "",
          "type": "uint256"
        }
      ],
      "stateMutability": "view",
      "type": "function"
    },
    {
      "inputs": [
        {
          "internalType": "address",
          "name": "to",
          "type": "address"
        },
        {
          "internalType": "uint256",
          "name": "amount",
          "type": "uint256"
        }
      ],
      "name": "transfer",
      "outputs": [
        {
          "internalType": "bool",
          "name": "",
          "type": "bool"
        }
      ],
      "stateMutability": "nonpayable",
      "type": "function"
    },
    {
      "inputs": [
        {
          "internalType": "address",
          "name": "from",
          "type": "address"
        },
        {
          "internalType": "address",
          "name": "to",
          "type": "address"
        },
        {
          "internalType": "uint256",
          "name": "amount",
          "type": "uint256"
        }
      ],
      "name": "transferFrom",
      "outputs": [
        {
          "internalType": "bool",
          "name": "",
          "type": "bool"
        }
      ],
      "stateMutability": "nonpayable",
      "type": "function"
    },
    {
      "inputs": [
        {
          "internalType": "address",
          "name": "newOwner",
          "type": "address"
        }
      ],
      "name": "transferOwnership",
      "outputs": [],
      "stateMutability": "nonpayable",
      "type": "function"
    },
    {
      "inputs": [],
      "name": "upgradeStrat",
      "outputs": [],
      "stateMutability": "nonpayable",
      "type": "function"
    },
    {
      "inputs": [
        {
          "internalType": "uint256",
          "name": "_shares",
          "type": "uint256"
        }
      ],
      "name": "withdraw",
      "outputs": [],
      "stateMutability": "nonpayable",
      "type": "function"
    },
    {
      "inputs": [],
      "name": "withdrawAll",
      "outputs": [],
      "stateMutability": "nonpayable",
      "type": "function"
    }
  ],
  "bytecode": "0x60a06040523480156200001157600080fd5b50604051620021be380380620021be83398101604081905262000034916200025a565b8251839083906200004d906003906020850190620000e7565b50805162000063906004906020840190620000e7565b505050620000806200007a6200009160201b60201c565b62000095565b600160065560805250620003099050565b3390565b600580546001600160a01b038381166001600160a01b0319831681179093556040519116919082907f8be0079c531659141344cd1fd0a4f28419497f9722a3daafe3b4186f6b6457e090600090a35050565b828054620000f590620002cd565b90600052602060002090601f01602090048101928262000119576000855562000164565b82601f106200013457805160ff191683800117855562000164565b8280016001018555821562000164579182015b828111156200016457825182559160200191906001019062000147565b506200017292915062000176565b5090565b5b8082111562000172576000815560010162000177565b634e487b7160e01b600052604160045260246000fd5b600082601f830112620001b557600080fd5b81516001600160401b0380821115620001d257620001d26200018d565b604051601f8301601f19908116603f01168101908282118183101715620001fd57620001fd6200018d565b816040528381526020925086838588010111156200021a57600080fd5b600091505b838210156200023e57858201830151818301840152908201906200021f565b83821115620002505760008385830101525b9695505050505050565b6000806000606084860312156200027057600080fd5b83516001600160401b03808211156200028857600080fd5b6200029687838801620001a3565b94506020860151915080821115620002ad57600080fd5b50620002bc86828701620001a3565b925050604084015190509250925092565b600181811c90821680620002e257607f821691505b6020821081036200030357634e487b7160e01b600052602260045260246000fd5b50919050565b608051611e926200032c6000396000818161043b01526110c60152611e926000f3fe608060405234801561001057600080fd5b50600436106101e55760003560e01c806377c7b8fc1161010f578063b6b55f25116100a2578063def68a9c11610071578063def68a9c14610423578063e2d1e75c14610436578063e66852441461045d578063f2fde38b1461046557600080fd5b8063b6b55f25146103ed578063d389800f14610400578063dd62ed3e14610408578063de5f62681461041b57600080fd5b8063a457c2d7116100de578063a457c2d7146103ac578063a8c62e76146103bf578063a9059cbb146103d2578063b69ef8a8146103e557600080fd5b806377c7b8fc14610383578063853828b61461038b5780638da5cb5b1461039357806395d89b41146103a457600080fd5b8063313ce567116101875780635b12ff9b116101565780635b12ff9b1461030957806370a082311461031c578063715018a61461034557806376dfabb81461034d57600080fd5b8063313ce567146102bf57806339509351146102ce5780633a4b66f1146102e157806348a0d7541461030157600080fd5b806319ab453c116101c357806319ab453c1461023d57806323b872dd1461025257806329659788146102655780632e1a7d4d146102ac57600080fd5b806306fdde03146101ea578063095ea7b31461020857806318160ddd1461022b575b600080fd5b6101f2610478565b6040516101ff9190611c04565b60405180910390f35b61021b610216366004611c4c565b61050a565b60405190151581526020016101ff565b6002545b6040519081526020016101ff565b61025061024b366004611c78565b610522565b005b61021b610260366004611c95565b61064c565b6040805180820182526000808252602091820152815180830183526008546001600160a01b03168082526009549183019182528351908152905191810191909152016101ff565b6102506102ba366004611cd6565b610672565b604051601281526020016101ff565b61021b6102dc366004611c4c565b610897565b6102e96108b9565b6040516001600160a01b0390911681526020016101ff565b61022f61092c565b610250610317366004611c78565b6109a0565b61022f61032a366004611c78565b6001600160a01b031660009081526020819052604090205490565b610250610abd565b600854600954610364916001600160a01b03169082565b604080516001600160a01b0390931683526020830191909152016101ff565b61022f610ad1565b610250610b0e565b6005546001600160a01b03166102e9565b6101f2610b27565b61021b6103ba366004611c4c565b610b36565b600a546102e9906001600160a01b031681565b61021b6103e0366004611c4c565b610bbc565b61022f610bca565b6102506103fb366004611cd6565b610cbe565b610250610e5b565b61022f610416366004611cef565b610ef4565b610250610f1f565b610250610431366004611c78565b610f94565b61022f7f000000000000000000000000000000000000000000000000000000000000000081565b61025061106e565b610250610473366004611c78565b6111fe565b60606003805461048790611d28565b80601f01602080910402602001604051908101604052809291908181526020018280546104b390611d28565b80156105005780601f106104d557610100808354040283529160200191610500565b820191906000526020600020905b8154815290600101906020018083116104e357829003601f168201915b5050505050905090565b600033610518818585611277565b5060019392505050565b600754610100900460ff16158080156105425750600754600160ff909116105b8061055c5750303b15801561055c575060075460ff166001145b6105c45760405162461bcd60e51b815260206004820152602e60248201527f496e697469616c697a61626c653a20636f6e747261637420697320616c72656160448201526d191e481a5b9a5d1a585b1a5e995960921b60648201526084015b60405180910390fd5b6007805460ff1916600117905580156105e7576007805461ff0019166101001790555b600a80546001600160a01b0319166001600160a01b0384161790558015610648576007805461ff0019169055604051600181527f7f26b83ff96e1f2b6a682f133852f6798a09c465da95921460cefb38474024989060200160405180910390a15b5050565b60003361065a85828561139c565b610665858585611416565b60019150505b9392505050565b61067a6115e4565b60006106a061068860025490565b61069a84610694610bca565b9061163e565b9061164a565b90506106ac3383611656565b60006106b66108b9565b6040516370a0823160e01b81523060048201526001600160a01b0391909116906370a0823190602401602060405180830381865afa1580156106fc573d6000803e3d6000fd5b505050506040513d601f19601f820116820180604052508101906107209190611d62565b90508181101561083257600061073683836117a1565b600a54604051632e1a7d4d60e01b8152600481018390529192506001600160a01b031690632e1a7d4d90602401600060405180830381600087803b15801561077d57600080fd5b505af1158015610791573d6000803e3d6000fd5b50505050600061079f6108b9565b6040516370a0823160e01b81523060048201526001600160a01b0391909116906370a0823190602401602060405180830381865afa1580156107e5573d6000803e3d6000fd5b505050506040513d601f19601f820116820180604052508101906108099190611d62565b9050600061081782856117a1565b90508281101561082e5761082b84826117ad565b94505b5050505b61084f338361083f6108b9565b6001600160a01b031691906117b9565b337ff279e6a1f5e320cca91135676d9cb6e44ca8a08c0b88342bcdb1144f6511b5688361087a610bca565b6040805192835260208301919091520160405180910390a2505050565b6000336105188185856108aa8383610ef4565b6108b49190611d91565b611277565b600a5460408051633a4b66f160e01b815290516000926001600160a01b031691633a4b66f19160048083019260209291908290030181865afa158015610903573d6000803e3d6000fd5b505050506040513d601f19601f820116820180604052508101906109279190611da9565b905090565b60006109366108b9565b6040516370a0823160e01b81523060048201526001600160a01b0391909116906370a0823190602401602060405180830381865afa15801561097c573d6000803e3d6000fd5b505050506040513d601f19601f820116820180604052508101906109279190611d62565b6109a86115e4565b806001600160a01b031663fbfa77cf6040518163ffffffff1660e01b8152600401602060405180830381865afa1580156109e6573d6000803e3d6000fd5b505050506040513d601f19601f82011682018060405250810190610a0a9190611da9565b6001600160a01b0316306001600160a01b031614610a565760405162461bcd60e51b8152602060048201526009602482015268085c1c9bdc1bdcd85b60ba1b60448201526064016105bb565b6040805180820182526001600160a01b038316808252426020928301819052600880546001600160a01b0319168317905560095591519182527f1aae2ec5647db56da2d513de40528ba3565c6057525637050660c4323bbac7df910160405180910390a150565b610ac56115e4565b610acf600061181c565b565b6000610adc60025490565b15610b0157610927610aed60025490565b61069a670de0b6b3a7640000610694610bca565b50670de0b6b3a764000090565b33600090815260208190526040902054610acf90610672565b60606004805461048790611d28565b60003381610b448286610ef4565b905083811015610ba45760405162461bcd60e51b815260206004820152602560248201527f45524332303a2064656372656173656420616c6c6f77616e63652062656c6f77604482015264207a65726f60d81b60648201526084016105bb565b610bb18286868403611277565b506001949350505050565b600033610518818585611416565b6000610927600a60009054906101000a90046001600160a01b03166001600160a01b031663722713f76040518163ffffffff1660e01b8152600401602060405180830381865afa158015610c22573d6000803e3d6000fd5b505050506040513d601f19601f82011682018060405250810190610c469190611d62565b610c4e6108b9565b6040516370a0823160e01b81523060048201526001600160a01b0391909116906370a0823190602401602060405180830381865afa158015610c94573d6000803e3d6000fd5b505050506040513d601f19601f82011682018060405250810190610cb89190611d62565b906117ad565b600260065403610d105760405162461bcd60e51b815260206004820152601f60248201527f5265656e7472616e637947756172643a207265656e7472616e742063616c6c0060448201526064016105bb565b6002600655610d1d6115e4565b600a60009054906101000a90046001600160a01b03166001600160a01b031663573fef0a6040518163ffffffff1660e01b8152600401600060405180830381600087803b158015610d6d57600080fd5b505af1158015610d81573d6000803e3d6000fd5b505050506000610d8f610bca565b9050610db0333084610d9f6108b9565b6001600160a01b031692919061186e565b610db8610e5b565b6000610dc2610bca565b9050610dce81836117a1565b92506000610ddb60025490565b600003610de9575082610e03565b610e008361069a610df960025490565b879061163e565b90505b610e0d33826118a6565b337f90890809c654f11d6e72a28fa60149770a0d11ec6c92319d6ceb2bb0a4ea1a1585610e38610bca565b6040805192835260208301919091520160405180910390a2505060016006555050565b610e636115e4565b6000610e6d61092c565b600a54909150610e89906001600160a01b03168261083f6108b9565b600a60009054906101000a90046001600160a01b03166001600160a01b031663d0e30db06040518163ffffffff1660e01b8152600401600060405180830381600087803b158015610ed957600080fd5b505af1158015610eed573d6000803e3d6000fd5b5050505050565b6001600160a01b03918216600090815260016020908152604080832093909416825291909152205490565b610acf610f2a6108b9565b6040516370a0823160e01b81523360048201526001600160a01b0391909116906370a0823190602401602060405180830381865afa158015610f70573d6000803e3d6000fd5b505050506040513d601f19601f820116820180604052508101906103fb9190611d62565b610f9c6115e4565b610fa46108b9565b6001600160a01b0316816001600160a01b031603610fed5760405162461bcd60e51b815260206004820152600660248201526510ba37b5b2b760d11b60448201526064016105bb565b6040516370a0823160e01b81523060048201526000906001600160a01b038316906370a0823190602401602060405180830381865afa158015611034573d6000803e3d6000fd5b505050506040513d601f19601f820116820180604052508101906110589190611d62565b90506106486001600160a01b03831633836117b9565b6110766115e4565b6008546001600160a01b03166110bb5760405162461bcd60e51b815260206004820152600a6024820152692163616e64696461746560b01b60448201526064016105bb565b60095442906110ea907f00000000000000000000000000000000000000000000000000000000000000006117ad565b106111205760405162461bcd60e51b81526020600482015260066024820152652164656c617960d01b60448201526064016105bb565b6008546040516001600160a01b0390911681527f7f37d440e85aba7fbf641c4bda5ca4ef669a80bffaacde2aa8d9feb1b048c82c9060200160405180910390a1600a60009054906101000a90046001600160a01b03166001600160a01b031663fb6177876040518163ffffffff1660e01b8152600401600060405180830381600087803b1580156111b057600080fd5b505af11580156111c4573d6000803e3d6000fd5b505060088054600a80546001600160a01b03199081166001600160a01b03841617909155169055505064012a05f200600955610acf610e5b565b6112066115e4565b6001600160a01b03811661126b5760405162461bcd60e51b815260206004820152602660248201527f4f776e61626c653a206e6577206f776e657220697320746865207a65726f206160448201526564647265737360d01b60648201526084016105bb565b6112748161181c565b50565b6001600160a01b0383166112d95760405162461bcd60e51b8152602060048201526024808201527f45524332303a20617070726f76652066726f6d20746865207a65726f206164646044820152637265737360e01b60648201526084016105bb565b6001600160a01b03821661133a5760405162461bcd60e51b815260206004820152602260248201527f45524332303a20617070726f766520746f20746865207a65726f206164647265604482015261737360f01b60648201526084016105bb565b6001600160a01b0383811660008181526001602090815260408083209487168084529482529182902085905590518481527f8c5be1e5ebec7d5bd14f71427d1e84f3dd0314c0f7b2291e5b200ac8c7c3b92591015b60405180910390a3505050565b60006113a88484610ef4565b9050600019811461141057818110156114035760405162461bcd60e51b815260206004820152601d60248201527f45524332303a20696e73756666696369656e7420616c6c6f77616e636500000060448201526064016105bb565b6114108484848403611277565b50505050565b6001600160a01b03831661147a5760405162461bcd60e51b815260206004820152602560248201527f45524332303a207472616e736665722066726f6d20746865207a65726f206164604482015264647265737360d81b60648201526084016105bb565b6001600160a01b0382166114dc5760405162461bcd60e51b815260206004820152602360248201527f45524332303a207472616e7366657220746f20746865207a65726f206164647260448201526265737360e81b60648201526084016105bb565b6001600160a01b038316600090815260208190526040902054818110156115545760405162461bcd60e51b815260206004820152602660248201527f45524332303a207472616e7366657220616d6f756e7420657863656564732062604482015265616c616e636560d01b60648201526084016105bb565b6001600160a01b0380851660009081526020819052604080822085850390559185168152908120805484929061158b908490611d91565b92505081905550826001600160a01b0316846001600160a01b03167fddf252ad1be2c89b69c2b068fc378daa952ba7f163c4a11628f55a4df523b3ef846040516115d791815260200190565b60405180910390a3611410565b6005546001600160a01b03163314610acf5760405162461bcd60e51b815260206004820181905260248201527f4f776e61626c653a2063616c6c6572206973206e6f7420746865206f776e657260448201526064016105bb565b600061066b8284611dc6565b600061066b8284611de5565b6001600160a01b0382166116b65760405162461bcd60e51b815260206004820152602160248201527f45524332303a206275726e2066726f6d20746865207a65726f206164647265736044820152607360f81b60648201526084016105bb565b6001600160a01b0382166000908152602081905260409020548181101561172a5760405162461bcd60e51b815260206004820152602260248201527f45524332303a206275726e20616d6f756e7420657863656564732062616c616e604482015261636560f01b60648201526084016105bb565b6001600160a01b0383166000908152602081905260408120838303905560028054849290611759908490611e07565b90915550506040518281526000906001600160a01b038516907fddf252ad1be2c89b69c2b068fc378daa952ba7f163c4a11628f55a4df523b3ef9060200161138f565b505050565b600061066b8284611e07565b600061066b8284611d91565b6040516001600160a01b03831660248201526044810182905261179c90849063a9059cbb60e01b906064015b60408051601f198184030181529190526020810180516001600160e01b03166001600160e01b031990931692909217909152611985565b600580546001600160a01b038381166001600160a01b0319831681179093556040519116919082907f8be0079c531659141344cd1fd0a4f28419497f9722a3daafe3b4186f6b6457e090600090a35050565b6040516001600160a01b03808516602483015283166044820152606481018290526114109085906323b872dd60e01b906084016117e5565b6001600160a01b0382166118fc5760405162461bcd60e51b815260206004820152601f60248201527f45524332303a206d696e7420746f20746865207a65726f20616464726573730060448201526064016105bb565b806002600082825461190e9190611d91565b90915550506001600160a01b0382166000908152602081905260408120805483929061193b908490611d91565b90915550506040518181526001600160a01b038316906000907fddf252ad1be2c89b69c2b068fc378daa952ba7f163c4a11628f55a4df523b3ef9060200160405180910390a35050565b60006119da826040518060400160405280602081526020017f5361666545524332303a206c6f772d6c6576656c2063616c6c206661696c6564815250856001600160a01b0316611a579092919063ffffffff16565b80519091501561179c57808060200190518101906119f89190611e1e565b61179c5760405162461bcd60e51b815260206004820152602a60248201527f5361666545524332303a204552433230206f7065726174696f6e20646964206e6044820152691bdd081cdd58d8d9595960b21b60648201526084016105bb565b6060611a668484600085611a6e565b949350505050565b606082471015611acf5760405162461bcd60e51b815260206004820152602660248201527f416464726573733a20696e73756666696369656e742062616c616e636520666f6044820152651c8818d85b1b60d21b60648201526084016105bb565b6001600160a01b0385163b611b265760405162461bcd60e51b815260206004820152601d60248201527f416464726573733a2063616c6c20746f206e6f6e2d636f6e747261637400000060448201526064016105bb565b600080866001600160a01b03168587604051611b429190611e40565b60006040518083038185875af1925050503d8060008114611b7f576040519150601f19603f3d011682016040523d82523d6000602084013e611b84565b606091505b5091509150611b94828286611b9f565b979650505050505050565b60608315611bae57508161066b565b825115611bbe5782518084602001fd5b8160405162461bcd60e51b81526004016105bb9190611c04565b60005b83811015611bf3578181015183820152602001611bdb565b838111156114105750506000910152565b6020815260008251806020840152611c23816040850160208701611bd8565b601f01601f19169190910160400192915050565b6001600160a01b038116811461127457600080fd5b60008060408385031215611c5f57600080fd5b8235611c6a81611c37565b946020939093013593505050565b600060208284031215611c8a57600080fd5b813561066b81611c37565b600080600060608486031215611caa57600080fd5b8335611cb581611c37565b92506020840135611cc581611c37565b929592945050506040919091013590565b600060208284031215611ce857600080fd5b5035919050565b60008060408385031215611d0257600080fd5b8235611d0d81611c37565b91506020830135611d1d81611c37565b809150509250929050565b600181811c90821680611d3c57607f821691505b602082108103611d5c57634e487b7160e01b600052602260045260246000fd5b50919050565b600060208284031215611d7457600080fd5b5051919050565b634e487b7160e01b600052601160045260246000fd5b60008219821115611da457611da4611d7b565b500190565b600060208284031215611dbb57600080fd5b815161066b81611c37565b6000816000190483118215151615611de057611de0611d7b565b500290565b600082611e0257634e487b7160e01b600052601260045260246000fd5b500490565b600082821015611e1957611e19611d7b565b500390565b600060208284031215611e3057600080fd5b8151801515811461066b57600080fd5b60008251611e52818460208701611bd8565b919091019291505056fea2646970667358221220174cbb6406d9e9c662491f31e3c3b61156ca65595812fa71d8ae244d19dd555464736f6c634300080d0033",
  "linkReferences": {},
  "deployedLinkReferences": {}
}