{
  "_format": "hh-sol-artifact-1",
  "contractName": "PancakeVaultFactoryV1",
  "sourceName": "src/PancakeVaultFactoryV1.sol",
  "abi": [
    {
      "inputs": [
        {
          "internalType": "address",
          "name": "_chef",
          "type": "address"
        },
        {
          "internalType": "address",
          "name": "_router",
          "type": "address"
        },
        {
          "internalType": "address",
          "name": "_pancakeFactory",
          "type": "address"
        }
      ],
      "stateMutability": "nonpayable",
      "type": "constructor"
    },
    {
      "anonymous": false,
      "inputs": [
        {
          "indexed": false,
          "internalType": "address",
          "name": "user",
          "type": "address"
        },
        {
          "indexed": false,
          "internalType": "address",
          "name": "lpPool",
          "type": "address"
        },
        {
          "indexed": true,
          "internalType": "uint256",
          "name": "poolId",
          "type": "uint256"
        },
        {
          "indexed": false,
          "internalType": "address",
          "name": "vault",
          "type": "address"
        }
      ],
      "name": "VaultCreated",
      "type": "event"
    },
    {
      "inputs": [
        {
          "internalType": "uint256",
          "name": "",
          "type": "uint256"
        }
      ],
      "name": "allVaults",
      "outputs": [
        {
          "internalType": "address",
          "name": "",
          "type": "address"
        }
      ],
      "stateMutability": "view",
      "type": "function"
    },
    {
      "inputs": [
        {
          "components": [
            {
              "internalType": "uint256",
              "name": "poolId",
              "type": "uint256"
            },
            {
              "internalType": "uint256",
              "name": "approvalDelay",
              "type": "uint256"
            },
            {
              "internalType": "address[]",
              "name": "rewardToLp0Route",
              "type": "address[]"
            },
            {
              "internalType": "address[]",
              "name": "rewardToLp1Route",
              "type": "address[]"
            },
            {
              "internalType": "string",
              "name": "tokenName",
              "type": "string"
            },
            {
              "internalType": "string",
              "name": "tokenSymbol",
              "type": "string"
            }
          ],
          "internalType": "struct CreateVaultParams",
          "name": "createVaultParams",
          "type": "tuple"
        }
      ],
      "name": "createVault",
      "outputs": [
        {
          "internalType": "address",
          "name": "vaultAddress",
          "type": "address"
        }
      ],
      "stateMutability": "nonpayable",
      "type": "function"
    },
    {
      "inputs": [
        {
          "internalType": "address",
          "name": "",
          "type": "address"
        },
        {
          "internalType": "address",
          "name": "",
          "type": "address"
        },
        {
          "internalType": "uint256",
          "name": "",
          "type": "uint256"
        }
      ],
      "name": "getVault",
      "outputs": [
        {
          "internalType": "address",
          "name": "",
          "type": "address"
        }
      ],
      "stateMutability": "view",
      "type": "function"
    },
    {
      "inputs": [],
      "name": "listAllVaults",
      "outputs": [
        {
          "internalType": "address[]",
          "name": "",
          "type": "address[]"
        }
      ],
      "stateMutability": "view",
      "type": "function"
    }
  ],
  "bytecode": "0x608060405234801561001057600080fd5b50604051615e0f380380615e0f83398101604081905261002f9161009a565b600280546001600160a01b039485166001600160a01b031991821617909155600380549385169382169390931790925560048054919093169082161790915560058054909116331790556100dd565b80516001600160a01b038116811461009557600080fd5b919050565b6000806000606084860312156100af57600080fd5b6100b88461007e565b92506100c66020850161007e565b91506100d46040850161007e565b90509250925092565b615d23806100ec6000396000f3fe60806040523480156200001157600080fd5b5060043610620000525760003560e01c806366a9a1bb146200005757806376bd758614620000795780639094a91e14620000a9578063991c43f314620000c0575b600080fd5b62000061620000fc565b60405162000070919062000708565b60405180910390f35b620000906200008a366004620008f1565b62000160565b6040516001600160a01b03909116815260200162000070565b62000090620000ba366004620009ef565b620006c1565b62000090620000d136600462000a09565b600060208181529381526040808220855292815282812090935282529020546001600160a01b031681565b606060018054806020026020016040519081016040528092919081815260200182805480156200015657602002820191906000526020600020905b81546001600160a01b0316815260019091019060200180831162000137575b5050505050905090565b6040810151805160009182916200017a9060019062000a4f565b815181106200018d576200018d62000a75565b60200260200101519050600083606001516001856060015151620001b2919062000a4f565b81518110620001c557620001c562000a75565b60209081029190910101516004805460405163e6a4390560e01b81526001600160a01b0386811693820193909352828416602482015292935060009291169063e6a4390590604401602060405180830381865afa1580156200022b573d6000803e3d6000fd5b505050506040513d601f19601f8201168201806040525081019062000251919062000a8b565b90508460000151600260009054906101000a90046001600160a01b03166001600160a01b031663081e3eda6040518163ffffffff1660e01b8152600401602060405180830381865afa158015620002ac573d6000803e3d6000fd5b505050506040513d601f19601f82011682018060405250810190620002d2919062000ab2565b1015620003185760405162461bcd60e51b815260206004820152600f60248201526e1253959053125117d413d3d317d251608a1b60448201526064015b60405180910390fd5b6001600160a01b038316620003695760405162461bcd60e51b81526020600482015260166024820152754c505f544f4b454e305f5a45524f5f4144445245535360501b60448201526064016200030f565b336000908152602081815260408083206001600160a01b03858116855290835281842089518552909252909120541615620003d65760405162461bcd60e51b815260206004820152600c60248201526b5641554c545f45584953545360a01b60448201526064016200030f565b600085608001518660a001518760200151604051620003f590620006ec565b620004039392919062000b1c565b604051809103906000f08015801562000420573d6000803e3d6000fd5b506040805160a0810182526001600160a01b03808616825289516020808401919091526002548216838501528a840151606080850191909152808c015160808501528451908101855282861681526003548316918101919091526005549091168184015291519297508793506000929091906200049d90620006fa565b620004aa92919062000b9c565b604051809103906000f080158015620004c7573d6000803e3d6000fd5b5060405163f2fde38b60e01b81523360048201529091506001600160a01b0383169063f2fde38b90602401600060405180830381600087803b1580156200050d57600080fd5b505af115801562000522573d6000803e3d6000fd5b505060405163f2fde38b60e01b81523360048201526001600160a01b038416925063f2fde38b9150602401600060405180830381600087803b1580156200056857600080fd5b505af11580156200057d573d6000803e3d6000fd5b505060405163066ad14f60e21b81526001600160a01b038481166004830152851692506319ab453c9150602401600060405180830381600087803b158015620005c557600080fd5b505af1158015620005da573d6000803e3d6000fd5b5050336000818152602081815260408083206001600160a01b038a811685529083528184208e5185529092528083208054928d166001600160a01b0319938416811790915560018054808201825594527fb10e2d527612073b26eecdfd717e6a320cf44b4afac2b0732d9fcbe2b7fa0cf6909301805490921690921790558a5190519093507f2ee88224508044af2e7272f772a4a850565fddd70e3a06387cf477f0899df4ca9250620006af919087908b906001600160a01b0393841681529183166020830152909116604082015260600190565b60405180910390a25050505050919050565b60018181548110620006d257600080fd5b6000918252602090912001546001600160a01b0316905081565b6121be8062000c3283390190565b612efe8062002df083390190565b6020808252825182820181905260009190848201906040850190845b818110156200074b5783516001600160a01b03168352928401929184019160010162000724565b50909695505050505050565b634e487b7160e01b600052604160045260246000fd5b60405160c0810167ffffffffffffffff8111828210171562000793576200079362000757565b60405290565b604051601f8201601f1916810167ffffffffffffffff81118282101715620007c557620007c562000757565b604052919050565b6001600160a01b0381168114620007e357600080fd5b50565b600082601f830112620007f857600080fd5b8135602067ffffffffffffffff82111562000817576200081762000757565b8160051b6200082882820162000799565b92835284810182019282810190878511156200084357600080fd5b83870192505b848310156200086f5782356200085f81620007cd565b8252918301919083019062000849565b979650505050505050565b600082601f8301126200088c57600080fd5b813567ffffffffffffffff811115620008a957620008a962000757565b620008be601f8201601f191660200162000799565b818152846020838601011115620008d457600080fd5b816020850160208301376000918101602001919091529392505050565b6000602082840312156200090457600080fd5b813567ffffffffffffffff808211156200091d57600080fd5b9083019060c082860312156200093257600080fd5b6200093c6200076d565b82358152602083013560208201526040830135828111156200095d57600080fd5b6200096b87828601620007e6565b6040830152506060830135828111156200098457600080fd5b6200099287828601620007e6565b606083015250608083013582811115620009ab57600080fd5b620009b9878286016200087a565b60808301525060a083013582811115620009d257600080fd5b620009e0878286016200087a565b60a08301525095945050505050565b60006020828403121562000a0257600080fd5b5035919050565b60008060006060848603121562000a1f57600080fd5b833562000a2c81620007cd565b9250602084013562000a3e81620007cd565b929592945050506040919091013590565b60008282101562000a7057634e487b7160e01b600052601160045260246000fd5b500390565b634e487b7160e01b600052603260045260246000fd5b60006020828403121562000a9e57600080fd5b815162000aab81620007cd565b9392505050565b60006020828403121562000ac557600080fd5b5051919050565b6000815180845260005b8181101562000af45760208185018101518683018201520162000ad6565b8181111562000b07576000602083870101525b50601f01601f19169290920160200192915050565b60608152600062000b31606083018662000acc565b828103602084015262000b45818662000acc565b915050826040830152949350505050565b600081518084526020808501945080840160005b8381101562000b915781516001600160a01b03168752958201959082019060010162000b6a565b509495945050505050565b60808152600060018060a01b03808551166080840152602085015160a08401528060408601511660c0840152606085015160a060e085015262000be461012085018262000b56565b90506080860151607f198583030161010086015262000c04828262000b56565b9350505080845116602084015280602085015116604084015280604085015116606084015250939250505056fe60a06040523480156200001157600080fd5b50604051620021be380380620021be83398101604081905262000034916200025a565b8251839083906200004d906003906020850190620000e7565b50805162000063906004906020840190620000e7565b505050620000806200007a6200009160201b60201c565b62000095565b600160065560805250620003099050565b3390565b600580546001600160a01b038381166001600160a01b0319831681179093556040519116919082907f8be0079c531659141344cd1fd0a4f28419497f9722a3daafe3b4186f6b6457e090600090a35050565b828054620000f590620002cd565b90600052602060002090601f01602090048101928262000119576000855562000164565b82601f106200013457805160ff191683800117855562000164565b8280016001018555821562000164579182015b828111156200016457825182559160200191906001019062000147565b506200017292915062000176565b5090565b5b8082111562000172576000815560010162000177565b634e487b7160e01b600052604160045260246000fd5b600082601f830112620001b557600080fd5b81516001600160401b0380821115620001d257620001d26200018d565b604051601f8301601f19908116603f01168101908282118183101715620001fd57620001fd6200018d565b816040528381526020925086838588010111156200021a57600080fd5b600091505b838210156200023e57858201830151818301840152908201906200021f565b83821115620002505760008385830101525b9695505050505050565b6000806000606084860312156200027057600080fd5b83516001600160401b03808211156200028857600080fd5b6200029687838801620001a3565b94506020860151915080821115620002ad57600080fd5b50620002bc86828701620001a3565b925050604084015190509250925092565b600181811c90821680620002e257607f821691505b6020821081036200030357634e487b7160e01b600052602260045260246000fd5b50919050565b608051611e926200032c6000396000818161043b01526110c60152611e926000f3fe608060405234801561001057600080fd5b50600436106101e55760003560e01c806377c7b8fc1161010f578063b6b55f25116100a2578063def68a9c11610071578063def68a9c14610423578063e2d1e75c14610436578063e66852441461045d578063f2fde38b1461046557600080fd5b8063b6b55f25146103ed578063d389800f14610400578063dd62ed3e14610408578063de5f62681461041b57600080fd5b8063a457c2d7116100de578063a457c2d7146103ac578063a8c62e76146103bf578063a9059cbb146103d2578063b69ef8a8146103e557600080fd5b806377c7b8fc14610383578063853828b61461038b5780638da5cb5b1461039357806395d89b41146103a457600080fd5b8063313ce567116101875780635b12ff9b116101565780635b12ff9b1461030957806370a082311461031c578063715018a61461034557806376dfabb81461034d57600080fd5b8063313ce567146102bf57806339509351146102ce5780633a4b66f1146102e157806348a0d7541461030157600080fd5b806319ab453c116101c357806319ab453c1461023d57806323b872dd1461025257806329659788146102655780632e1a7d4d146102ac57600080fd5b806306fdde03146101ea578063095ea7b31461020857806318160ddd1461022b575b600080fd5b6101f2610478565b6040516101ff9190611c04565b60405180910390f35b61021b610216366004611c4c565b61050a565b60405190151581526020016101ff565b6002545b6040519081526020016101ff565b61025061024b366004611c78565b610522565b005b61021b610260366004611c95565b61064c565b6040805180820182526000808252602091820152815180830183526008546001600160a01b03168082526009549183019182528351908152905191810191909152016101ff565b6102506102ba366004611cd6565b610672565b604051601281526020016101ff565b61021b6102dc366004611c4c565b610897565b6102e96108b9565b6040516001600160a01b0390911681526020016101ff565b61022f61092c565b610250610317366004611c78565b6109a0565b61022f61032a366004611c78565b6001600160a01b031660009081526020819052604090205490565b610250610abd565b600854600954610364916001600160a01b03169082565b604080516001600160a01b0390931683526020830191909152016101ff565b61022f610ad1565b610250610b0e565b6005546001600160a01b03166102e9565b6101f2610b27565b61021b6103ba366004611c4c565b610b36565b600a546102e9906001600160a01b031681565b61021b6103e0366004611c4c565b610bbc565b61022f610bca565b6102506103fb366004611cd6565b610cbe565b610250610e5b565b61022f610416366004611cef565b610ef4565b610250610f1f565b610250610431366004611c78565b610f94565b61022f7f000000000000000000000000000000000000000000000000000000000000000081565b61025061106e565b610250610473366004611c78565b6111fe565b60606003805461048790611d28565b80601f01602080910402602001604051908101604052809291908181526020018280546104b390611d28565b80156105005780601f106104d557610100808354040283529160200191610500565b820191906000526020600020905b8154815290600101906020018083116104e357829003601f168201915b5050505050905090565b600033610518818585611277565b5060019392505050565b600754610100900460ff16158080156105425750600754600160ff909116105b8061055c5750303b15801561055c575060075460ff166001145b6105c45760405162461bcd60e51b815260206004820152602e60248201527f496e697469616c697a61626c653a20636f6e747261637420697320616c72656160448201526d191e481a5b9a5d1a585b1a5e995960921b60648201526084015b60405180910390fd5b6007805460ff1916600117905580156105e7576007805461ff0019166101001790555b600a80546001600160a01b0319166001600160a01b0384161790558015610648576007805461ff0019169055604051600181527f7f26b83ff96e1f2b6a682f133852f6798a09c465da95921460cefb38474024989060200160405180910390a15b5050565b60003361065a85828561139c565b610665858585611416565b60019150505b9392505050565b61067a6115e4565b60006106a061068860025490565b61069a84610694610bca565b9061163e565b9061164a565b90506106ac3383611656565b60006106b66108b9565b6040516370a0823160e01b81523060048201526001600160a01b0391909116906370a0823190602401602060405180830381865afa1580156106fc573d6000803e3d6000fd5b505050506040513d601f19601f820116820180604052508101906107209190611d62565b90508181101561083257600061073683836117a1565b600a54604051632e1a7d4d60e01b8152600481018390529192506001600160a01b031690632e1a7d4d90602401600060405180830381600087803b15801561077d57600080fd5b505af1158015610791573d6000803e3d6000fd5b50505050600061079f6108b9565b6040516370a0823160e01b81523060048201526001600160a01b0391909116906370a0823190602401602060405180830381865afa1580156107e5573d6000803e3d6000fd5b505050506040513d601f19601f820116820180604052508101906108099190611d62565b9050600061081782856117a1565b90508281101561082e5761082b84826117ad565b94505b5050505b61084f338361083f6108b9565b6001600160a01b031691906117b9565b337ff279e6a1f5e320cca91135676d9cb6e44ca8a08c0b88342bcdb1144f6511b5688361087a610bca565b6040805192835260208301919091520160405180910390a2505050565b6000336105188185856108aa8383610ef4565b6108b49190611d91565b611277565b600a5460408051633a4b66f160e01b815290516000926001600160a01b031691633a4b66f19160048083019260209291908290030181865afa158015610903573d6000803e3d6000fd5b505050506040513d601f19601f820116820180604052508101906109279190611da9565b905090565b60006109366108b9565b6040516370a0823160e01b81523060048201526001600160a01b0391909116906370a0823190602401602060405180830381865afa15801561097c573d6000803e3d6000fd5b505050506040513d601f19601f820116820180604052508101906109279190611d62565b6109a86115e4565b806001600160a01b031663fbfa77cf6040518163ffffffff1660e01b8152600401602060405180830381865afa1580156109e6573d6000803e3d6000fd5b505050506040513d601f19601f82011682018060405250810190610a0a9190611da9565b6001600160a01b0316306001600160a01b031614610a565760405162461bcd60e51b8152602060048201526009602482015268085c1c9bdc1bdcd85b60ba1b60448201526064016105bb565b6040805180820182526001600160a01b038316808252426020928301819052600880546001600160a01b0319168317905560095591519182527f1aae2ec5647db56da2d513de40528ba3565c6057525637050660c4323bbac7df910160405180910390a150565b610ac56115e4565b610acf600061181c565b565b6000610adc60025490565b15610b0157610927610aed60025490565b61069a670de0b6b3a7640000610694610bca565b50670de0b6b3a764000090565b33600090815260208190526040902054610acf90610672565b60606004805461048790611d28565b60003381610b448286610ef4565b905083811015610ba45760405162461bcd60e51b815260206004820152602560248201527f45524332303a2064656372656173656420616c6c6f77616e63652062656c6f77604482015264207a65726f60d81b60648201526084016105bb565b610bb18286868403611277565b506001949350505050565b600033610518818585611416565b6000610927600a60009054906101000a90046001600160a01b03166001600160a01b031663722713f76040518163ffffffff1660e01b8152600401602060405180830381865afa158015610c22573d6000803e3d6000fd5b505050506040513d601f19601f82011682018060405250810190610c469190611d62565b610c4e6108b9565b6040516370a0823160e01b81523060048201526001600160a01b0391909116906370a0823190602401602060405180830381865afa158015610c94573d6000803e3d6000fd5b505050506040513d601f19601f82011682018060405250810190610cb89190611d62565b906117ad565b600260065403610d105760405162461bcd60e51b815260206004820152601f60248201527f5265656e7472616e637947756172643a207265656e7472616e742063616c6c0060448201526064016105bb565b6002600655610d1d6115e4565b600a60009054906101000a90046001600160a01b03166001600160a01b031663573fef0a6040518163ffffffff1660e01b8152600401600060405180830381600087803b158015610d6d57600080fd5b505af1158015610d81573d6000803e3d6000fd5b505050506000610d8f610bca565b9050610db0333084610d9f6108b9565b6001600160a01b031692919061186e565b610db8610e5b565b6000610dc2610bca565b9050610dce81836117a1565b92506000610ddb60025490565b600003610de9575082610e03565b610e008361069a610df960025490565b879061163e565b90505b610e0d33826118a6565b337f90890809c654f11d6e72a28fa60149770a0d11ec6c92319d6ceb2bb0a4ea1a1585610e38610bca565b6040805192835260208301919091520160405180910390a2505060016006555050565b610e636115e4565b6000610e6d61092c565b600a54909150610e89906001600160a01b03168261083f6108b9565b600a60009054906101000a90046001600160a01b03166001600160a01b031663d0e30db06040518163ffffffff1660e01b8152600401600060405180830381600087803b158015610ed957600080fd5b505af1158015610eed573d6000803e3d6000fd5b5050505050565b6001600160a01b03918216600090815260016020908152604080832093909416825291909152205490565b610acf610f2a6108b9565b6040516370a0823160e01b81523360048201526001600160a01b0391909116906370a0823190602401602060405180830381865afa158015610f70573d6000803e3d6000fd5b505050506040513d601f19601f820116820180604052508101906103fb9190611d62565b610f9c6115e4565b610fa46108b9565b6001600160a01b0316816001600160a01b031603610fed5760405162461bcd60e51b815260206004820152600660248201526510ba37b5b2b760d11b60448201526064016105bb565b6040516370a0823160e01b81523060048201526000906001600160a01b038316906370a0823190602401602060405180830381865afa158015611034573d6000803e3d6000fd5b505050506040513d601f19601f820116820180604052508101906110589190611d62565b90506106486001600160a01b03831633836117b9565b6110766115e4565b6008546001600160a01b03166110bb5760405162461bcd60e51b815260206004820152600a6024820152692163616e64696461746560b01b60448201526064016105bb565b60095442906110ea907f00000000000000000000000000000000000000000000000000000000000000006117ad565b106111205760405162461bcd60e51b81526020600482015260066024820152652164656c617960d01b60448201526064016105bb565b6008546040516001600160a01b0390911681527f7f37d440e85aba7fbf641c4bda5ca4ef669a80bffaacde2aa8d9feb1b048c82c9060200160405180910390a1600a60009054906101000a90046001600160a01b03166001600160a01b031663fb6177876040518163ffffffff1660e01b8152600401600060405180830381600087803b1580156111b057600080fd5b505af11580156111c4573d6000803e3d6000fd5b505060088054600a80546001600160a01b03199081166001600160a01b03841617909155169055505064012a05f200600955610acf610e5b565b6112066115e4565b6001600160a01b03811661126b5760405162461bcd60e51b815260206004820152602660248201527f4f776e61626c653a206e6577206f776e657220697320746865207a65726f206160448201526564647265737360d01b60648201526084016105bb565b6112748161181c565b50565b6001600160a01b0383166112d95760405162461bcd60e51b8152602060048201526024808201527f45524332303a20617070726f76652066726f6d20746865207a65726f206164646044820152637265737360e01b60648201526084016105bb565b6001600160a01b03821661133a5760405162461bcd60e51b815260206004820152602260248201527f45524332303a20617070726f766520746f20746865207a65726f206164647265604482015261737360f01b60648201526084016105bb565b6001600160a01b0383811660008181526001602090815260408083209487168084529482529182902085905590518481527f8c5be1e5ebec7d5bd14f71427d1e84f3dd0314c0f7b2291e5b200ac8c7c3b92591015b60405180910390a3505050565b60006113a88484610ef4565b9050600019811461141057818110156114035760405162461bcd60e51b815260206004820152601d60248201527f45524332303a20696e73756666696369656e7420616c6c6f77616e636500000060448201526064016105bb565b6114108484848403611277565b50505050565b6001600160a01b03831661147a5760405162461bcd60e51b815260206004820152602560248201527f45524332303a207472616e736665722066726f6d20746865207a65726f206164604482015264647265737360d81b60648201526084016105bb565b6001600160a01b0382166114dc5760405162461bcd60e51b815260206004820152602360248201527f45524332303a207472616e7366657220746f20746865207a65726f206164647260448201526265737360e81b60648201526084016105bb565b6001600160a01b038316600090815260208190526040902054818110156115545760405162461bcd60e51b815260206004820152602660248201527f45524332303a207472616e7366657220616d6f756e7420657863656564732062604482015265616c616e636560d01b60648201526084016105bb565b6001600160a01b0380851660009081526020819052604080822085850390559185168152908120805484929061158b908490611d91565b92505081905550826001600160a01b0316846001600160a01b03167fddf252ad1be2c89b69c2b068fc378daa952ba7f163c4a11628f55a4df523b3ef846040516115d791815260200190565b60405180910390a3611410565b6005546001600160a01b03163314610acf5760405162461bcd60e51b815260206004820181905260248201527f4f776e61626c653a2063616c6c6572206973206e6f7420746865206f776e657260448201526064016105bb565b600061066b8284611dc6565b600061066b8284611de5565b6001600160a01b0382166116b65760405162461bcd60e51b815260206004820152602160248201527f45524332303a206275726e2066726f6d20746865207a65726f206164647265736044820152607360f81b60648201526084016105bb565b6001600160a01b0382166000908152602081905260409020548181101561172a5760405162461bcd60e51b815260206004820152602260248201527f45524332303a206275726e20616d6f756e7420657863656564732062616c616e604482015261636560f01b60648201526084016105bb565b6001600160a01b0383166000908152602081905260408120838303905560028054849290611759908490611e07565b90915550506040518281526000906001600160a01b038516907fddf252ad1be2c89b69c2b068fc378daa952ba7f163c4a11628f55a4df523b3ef9060200161138f565b505050565b600061066b8284611e07565b600061066b8284611d91565b6040516001600160a01b03831660248201526044810182905261179c90849063a9059cbb60e01b906064015b60408051601f198184030181529190526020810180516001600160e01b03166001600160e01b031990931692909217909152611985565b600580546001600160a01b038381166001600160a01b0319831681179093556040519116919082907f8be0079c531659141344cd1fd0a4f28419497f9722a3daafe3b4186f6b6457e090600090a35050565b6040516001600160a01b03808516602483015283166044820152606481018290526114109085906323b872dd60e01b906084016117e5565b6001600160a01b0382166118fc5760405162461bcd60e51b815260206004820152601f60248201527f45524332303a206d696e7420746f20746865207a65726f20616464726573730060448201526064016105bb565b806002600082825461190e9190611d91565b90915550506001600160a01b0382166000908152602081905260408120805483929061193b908490611d91565b90915550506040518181526001600160a01b038316906000907fddf252ad1be2c89b69c2b068fc378daa952ba7f163c4a11628f55a4df523b3ef9060200160405180910390a35050565b60006119da826040518060400160405280602081526020017f5361666545524332303a206c6f772d6c6576656c2063616c6c206661696c6564815250856001600160a01b0316611a579092919063ffffffff16565b80519091501561179c57808060200190518101906119f89190611e1e565b61179c5760405162461bcd60e51b815260206004820152602a60248201527f5361666545524332303a204552433230206f7065726174696f6e20646964206e6044820152691bdd081cdd58d8d9595960b21b60648201526084016105bb565b6060611a668484600085611a6e565b949350505050565b606082471015611acf5760405162461bcd60e51b815260206004820152602660248201527f416464726573733a20696e73756666696369656e742062616c616e636520666f6044820152651c8818d85b1b60d21b60648201526084016105bb565b6001600160a01b0385163b611b265760405162461bcd60e51b815260206004820152601d60248201527f416464726573733a2063616c6c20746f206e6f6e2d636f6e747261637400000060448201526064016105bb565b600080866001600160a01b03168587604051611b429190611e40565b60006040518083038185875af1925050503d8060008114611b7f576040519150601f19603f3d011682016040523d82523d6000602084013e611b84565b606091505b5091509150611b94828286611b9f565b979650505050505050565b60608315611bae57508161066b565b825115611bbe5782518084602001fd5b8160405162461bcd60e51b81526004016105bb9190611c04565b60005b83811015611bf3578181015183820152602001611bdb565b838111156114105750506000910152565b6020815260008251806020840152611c23816040850160208701611bd8565b601f01601f19169190910160400192915050565b6001600160a01b038116811461127457600080fd5b60008060408385031215611c5f57600080fd5b8235611c6a81611c37565b946020939093013593505050565b600060208284031215611c8a57600080fd5b813561066b81611c37565b600080600060608486031215611caa57600080fd5b8335611cb581611c37565b92506020840135611cc581611c37565b929592945050506040919091013590565b600060208284031215611ce857600080fd5b5035919050565b60008060408385031215611d0257600080fd5b8235611d0d81611c37565b91506020830135611d1d81611c37565b809150509250929050565b600181811c90821680611d3c57607f821691505b602082108103611d5c57634e487b7160e01b600052602260045260246000fd5b50919050565b600060208284031215611d7457600080fd5b5051919050565b634e487b7160e01b600052601160045260246000fd5b60008219821115611da457611da4611d7b565b500190565b600060208284031215611dbb57600080fd5b815161066b81611c37565b6000816000190483118215151615611de057611de0611d7b565b500290565b600082611e0257634e487b7160e01b600052601260045260246000fd5b500490565b600082821015611e1957611e19611d7b565b500390565b600060208284031215611e3057600080fd5b8151801515811461066b57600080fd5b60008251611e52818460208701611bd8565b919091019291505056fea2646970667358221220174cbb6406d9e9c662491f31e3c3b61156ca65595812fa71d8ae244d19dd555464736f6c634300080d003360806040523480156200001157600080fd5b5060405162002efe38038062002efe833981016040819052620000349162000b6f565b80620000403362000456565b6000805460ff60a01b191681558151600180546001600160a01b03199081166001600160a01b03938416179091556020808501516002805484169185169190911790556040948501516003805484169185169190911790558651600580548416918516919091179055860151600955928501516008805490941691161790915560608301516080840151815191929091839190620000e257620000e262000c50565b602090810291909101810151600480546001600160a01b0319166001600160a01b0392831617815560055460408051630dfe168160e01b815290519190931693630dfe16819380840193919291908290030181865afa1580156200014a573d6000803e3d6000fd5b505050506040513d601f19601f8201168201806040525081019062000170919062000c66565b600680546001600160a01b0319166001600160a01b0392831617905560045483519116908390600090620001a857620001a862000c50565b60200260200101516001600160a01b031614620002005760405162461bcd60e51b815260206004820152601160248201527021726577617264546f4c7030526f75746560781b60448201526064015b60405180910390fd5b60065482516001600160a01b03909116908390620002219060019062000c84565b8151811062000234576200023462000c50565b60200260200101516001600160a01b031614620002885760405162461bcd60e51b815260206004820152601160248201527021726577617264546f4c7030526f75746560781b6044820152606401620001f7565b81516200029d90600c90602085019062000976565b50600560009054906101000a90046001600160a01b03166001600160a01b031663d21220a76040518163ffffffff1660e01b8152600401602060405180830381865afa158015620002f2573d6000803e3d6000fd5b505050506040513d601f19601f8201168201806040525081019062000318919062000c66565b600780546001600160a01b0319166001600160a01b039283161790556004548251911690829060009062000350576200035062000c50565b60200260200101516001600160a01b031614620003a45760405162461bcd60e51b815260206004820152601160248201527021726577617264546f4c7031526f75746560781b6044820152606401620001f7565b60075481516001600160a01b03909116908290620003c59060019062000c84565b81518110620003d857620003d862000c50565b60200260200101516001600160a01b0316146200042c5760405162461bcd60e51b815260206004820152601160248201527021726577617264546f4c7031526f75746560781b6044820152606401620001f7565b80516200044190600d90602084019062000976565b506200044c620004a6565b5050505062000d6e565b600080546001600160a01b038381166001600160a01b0319831681178455604051919092169283917f8be0079c531659141344cd1fd0a4f28419497f9722a3daafe3b4186f6b6457e09190a35050565b600854600554620004d3916001600160a01b039182169116600019620005b4602090811b62000eac17901c565b60025460045462000500916001600160a01b039182169116600019620005b4602090811b62000eac17901c565b6002546006546200052c916001600160a01b0391821691166000620005b4602090811b62000eac17901c565b60025460065462000559916001600160a01b039182169116600019620005b4602090811b62000eac17901c565b60025460075462000585916001600160a01b0391821691166000620005b4602090811b62000eac17901c565b600254600754620005b2916001600160a01b039182169116600019620005b4602090811b62000eac17901c565b565b801580620006325750604051636eb1769f60e11b81523060048201526001600160a01b03838116602483015284169063dd62ed3e90604401602060405180830381865afa1580156200060a573d6000803e3d6000fd5b505050506040513d601f19601f8201168201806040525081019062000630919062000caa565b155b620006a65760405162461bcd60e51b815260206004820152603660248201527f5361666545524332303a20617070726f76652066726f6d206e6f6e2d7a65726f60448201527f20746f206e6f6e2d7a65726f20616c6c6f77616e6365000000000000000000006064820152608401620001f7565b604080516001600160a01b038416602482015260448082018490528251808303909101815260649091019091526020810180516001600160e01b0390811663095ea7b360e01b17909152620006fe9185916200070316565b505050565b60006200075f826040518060400160405280602081526020017f5361666545524332303a206c6f772d6c6576656c2063616c6c206661696c6564815250856001600160a01b0316620007e160201b62000ff4179092919060201c565b805190915015620006fe578080602001905181019062000780919062000cc4565b620006fe5760405162461bcd60e51b815260206004820152602a60248201527f5361666545524332303a204552433230206f7065726174696f6e20646964206e6044820152691bdd081cdd58d8d9595960b21b6064820152608401620001f7565b6060620007f28484600085620007fc565b90505b9392505050565b6060824710156200085f5760405162461bcd60e51b815260206004820152602660248201527f416464726573733a20696e73756666696369656e742062616c616e636520666f6044820152651c8818d85b1b60d21b6064820152608401620001f7565b6001600160a01b0385163b620008b85760405162461bcd60e51b815260206004820152601d60248201527f416464726573733a2063616c6c20746f206e6f6e2d636f6e74726163740000006044820152606401620001f7565b600080866001600160a01b03168587604051620008d6919062000d1b565b60006040518083038185875af1925050503d806000811462000915576040519150601f19603f3d011682016040523d82523d6000602084013e6200091a565b606091505b5090925090506200092d82828662000938565b979650505050505050565b6060831562000949575081620007f5565b8251156200095a5782518084602001fd5b8160405162461bcd60e51b8152600401620001f7919062000d39565b828054828255906000526020600020908101928215620009ce579160200282015b82811115620009ce57825182546001600160a01b0319166001600160a01b0390911617825560209092019160019091019062000997565b50620009dc929150620009e0565b5090565b5b80821115620009dc5760008155600101620009e1565b634e487b7160e01b600052604160045260246000fd5b60405160a081016001600160401b038111828210171562000a325762000a32620009f7565b60405290565b80516001600160a01b038116811462000a5057600080fd5b919050565b600082601f83011262000a6757600080fd5b815160206001600160401b038083111562000a865762000a86620009f7565b8260051b604051601f19603f8301168101818110848211171562000aae5762000aae620009f7565b60405293845285810183019383810192508785111562000acd57600080fd5b83870191505b848210156200092d5762000ae78262000a38565b8352918301919083019062000ad3565b60006060828403121562000b0a57600080fd5b604051606081016001600160401b038111828210171562000b2f5762000b2f620009f7565b60405290508062000b408362000a38565b815262000b506020840162000a38565b602082015262000b636040840162000a38565b60408201525092915050565b6000806080838503121562000b8357600080fd5b82516001600160401b038082111562000b9b57600080fd5b9084019060a0828703121562000bb057600080fd5b62000bba62000a0d565b62000bc58362000a38565b81526020830151602082015262000bdf6040840162000a38565b604082015260608301518281111562000bf757600080fd5b62000c058882860162000a55565b60608301525060808301518281111562000c1e57600080fd5b62000c2c8882860162000a55565b60808301525080945050505062000c47846020850162000af7565b90509250929050565b634e487b7160e01b600052603260045260246000fd5b60006020828403121562000c7957600080fd5b620007f58262000a38565b60008282101562000ca557634e487b7160e01b600052601160045260246000fd5b500390565b60006020828403121562000cbd57600080fd5b5051919050565b60006020828403121562000cd757600080fd5b81518015158114620007f557600080fd5b60005b8381101562000d0557818101518382015260200162000ceb565b8381111562000d15576000848401525b50505050565b6000825162000d2f81846020870162000ce8565b9190910192915050565b602081526000825180602084015262000d5a81604085016020870162000ce8565b601f01601f19169190910160400192915050565b6121808062000d7e6000396000f3fe608060405234801561001057600080fd5b50600436106102275760003560e01c8063722713f711610130578063d0e30db0116100b8578063f1a392da1161007c578063f1a392da14610419578063f2fde38b14610422578063f887ea4014610435578063fb61778714610448578063fbfa77cf1461045057600080fd5b8063d0e30db0146103e6578063d0ebdbe7146103ee578063d801d94614610401578063e7a7250a14610409578063ef21c9941461041157600080fd5b8063a11d3556116100ff578063a11d35561461039b578063a839d5e6146103b0578063b3a9c91c146103c3578063be3fbd1c146103cb578063c0d78655146103d357600080fd5b8063722713f7146103675780638456cb591461036f578063877562b6146103775780638da5cb5b1461038a57600080fd5b80634700d305116101b357806359e791381161018257806359e79138146103095780635c975abb1461031c5780635ee167c0146103395780636817031b1461034c578063715018a61461035f57600080fd5b80634700d305146102db57806348162c79146102e3578063481c6a75146102f6578063573fef0a146102b557600080fd5b8063286a876b116101fa578063286a876b1461029a5780632e1a7d4d146102a25780633a4b66f1146102b75780633e0dc34e146102ca5780633f4ba83a146102d357600080fd5b8063115880861461022c5780631fc8bc5d14610247578063228cb73314610272578063277e5cfd14610285575b600080fd5b610234610463565b6040519081526020015b60405180910390f35b60085461025a906001600160a01b031681565b6040516001600160a01b03909116815260200161023e565b60045461025a906001600160a01b031681565b61028d6104e5565b60405161023e9190611d2e565b610234610573565b6102b56102b0366004611d61565b6105e5565b005b60055461025a906001600160a01b031681565b61023460095481565b6102b56107b1565b6102b56107d3565b61025a6102f1366004611d61565b61084c565b60035461025a906001600160a01b031681565b6102b5610317366004611d7a565b610876565b600054600160a01b900460ff16604051901515815260200161023e565b60065461025a906001600160a01b031681565b6102b561035a366004611dec565b61088f565b6102b56108ec565b6102346108fe565b6102b561091a565b60075461025a906001600160a01b031681565b6000546001600160a01b031661025a565b6103a3610932565b60405161023e9190611e15565b61025a6103be366004611d61565b610994565b6102b56109a4565b6103a3610a01565b6102b56103e1366004611dec565b610a61565b6102b5610ab7565b6102b56103fc366004611dec565b610abf565b6102b5610b15565b610234610b25565b6102b5610c7c565b610234600a5481565b6102b5610430366004611dec565b610cd6565b60025461025a906001600160a01b031681565b6102b5610d4f565b60015461025a906001600160a01b031681565b6008546009546040516393f1a40b60e01b8152600481019190915230602482015260009182916001600160a01b03909116906393f1a40b906044016040805180830381865afa1580156104ba573d6000803e3d6000fd5b505050506040513d601f19601f820116820180604052508101906104de9190611e62565b5092915050565b600b80546104f290611e86565b80601f016020809104026020016040519081016040528092919081815260200182805461051e90611e86565b801561056b5780601f106105405761010080835404028352916020019161056b565b820191906000526020600020905b81548152906001019060200180831161054e57829003601f168201915b505050505081565b6005546040516370a0823160e01b81523060048201526000916001600160a01b0316906370a0823190602401602060405180830381865afa1580156105bc573d6000803e3d6000fd5b505050506040513d601f19601f820116820180604052508101906105e09190611ec0565b905090565b6105ed6109a4565b6005546040516370a0823160e01b81523060048201526000916001600160a01b0316906370a0823190602401602060405180830381865afa158015610636573d6000803e3d6000fd5b505050506040513d601f19601f8201168201806040525081019061065a9190611ec0565b90508181101561074b576008546009546001600160a01b039091169063441a3e70906106868486611eef565b6040516001600160e01b031960e085901b16815260048101929092526024820152604401600060405180830381600087803b1580156106c457600080fd5b505af11580156106d8573d6000803e3d6000fd5b50506005546040516370a0823160e01b81523060048201526001600160a01b0390911692506370a082319150602401602060405180830381865afa158015610724573d6000803e3d6000fd5b505050506040513d601f19601f820116820180604052508101906107489190611ec0565b90505b818111156107565750805b600154600554610773916001600160a01b0391821691168361100d565b7f5b6b431d4476a211bb7d41c20d1aab9ae2321deee0d20be3d9fc9b1093fa6e3d61079c6108fe565b60405190815260200160405180910390a15050565b6107b9610c7c565b6107c161103d565b6107c9611092565b6107d161114a565b565b6107db610c7c565b6107e361091a565b600854600954604051632989754760e11b81526001600160a01b0390921691635312ea8e916108189160040190815260200190565b600060405180830381600087803b15801561083257600080fd5b505af1158015610846573d6000803e3d6000fd5b50505050565b600c818154811061085c57600080fd5b6000918252602090912001546001600160a01b0316905081565b61087e610c7c565b61088a600b8383611c69565b505050565b61089761126c565b600180546001600160a01b0319166001600160a01b0383169081179091556040519081527fd459c7242e23d490831b5676a611c4342d899d28f342d89ae80793e56a930f30906020015b60405180910390a150565b6108f461126c565b6107d160006112c6565b6000610908610463565b610910610573565b6105e09190611f06565b610922610c7c565b61092a611316565b6107d1611359565b6060600d80548060200260200160405190810160405280929190818152602001828054801561098a57602002820191906000526020600020905b81546001600160a01b0316815260019091019060200180831161096c575b5050505050905090565b600d818154811061085c57600080fd5b6000546001600160a01b03163314806109c757506001546001600160a01b031633145b6107d15760405162461bcd60e51b8152602060048201526006602482015265085d985d5b1d60d21b60448201526064015b60405180910390fd5b6060600c80548060200260200160405190810160405280929190818152602001828054801561098a576020028201919060005260206000209081546001600160a01b0316815260019091019060200180831161096c575050505050905090565b610a6961126c565b600280546001600160a01b0319166001600160a01b0383169081179091556040519081527f6de4326a8b9054d72d9dbab97d27bc4edffadee7d966f5af9cc4eafdaf8e5455906020016108e1565b6107c96109a4565b610ac7610c7c565b600380546001600160a01b0319166001600160a01b0383169081179091556040519081527f54a6385aa0292b04e1ef8513253c17d1863f7cdfc87029d77fd55cc4c2e717e2906020016108e1565b610b1d610c7c565b6107d16113d1565b600080610be5600b8054610b3890611e86565b80601f0160208091040260200160405190810160405280929190818152602001828054610b6490611e86565b8015610bb15780601f10610b8657610100808354040283529160200191610bb1565b820191906000526020600020905b815481529060010190602001808311610b9457829003601f168201915b5050505050604051806040016040528060118152602001702875696e743235362c616464726573732960781b815250611521565b6008546009546040516024810191909152306044820152919250600091610c5f916001600160a01b031690849060640160408051601f198184030181529082905291610c3091611f1e565b6040519081900390206020820180516001600160e01b03166001600160e01b031990921691909117905261154d565b905080806020019051810190610c759190611ec0565b9250505090565b6000546001600160a01b0316331480610c9f57506003546001600160a01b031633145b6107d15760405162461bcd60e51b815260206004820152600860248201526710b6b0b730b3b2b960c11b60448201526064016109f8565b610cde61126c565b6001600160a01b038116610d435760405162461bcd60e51b815260206004820152602660248201527f4f776e61626c653a206e6577206f776e657220697320746865207a65726f206160448201526564647265737360d01b60648201526084016109f8565b610d4c816112c6565b50565b610d576109a4565b600854600954604051632989754760e11b81526001600160a01b0390921691635312ea8e91610d8c9160040190815260200190565b600060405180830381600087803b158015610da657600080fd5b505af1158015610dba573d6000803e3d6000fd5b50506005546040516370a0823160e01b8152306004820152600093506001600160a01b0390911691506370a0823190602401602060405180830381865afa158015610e09573d6000803e3d6000fd5b505050506040513d601f19601f82011682018060405250810190610e2d9190611ec0565b60055460015460405163a9059cbb60e01b81526001600160a01b03918216600482015260248101849052929350169063a9059cbb906044016020604051808303816000875af1158015610e84573d6000803e3d6000fd5b505050506040513d601f19601f82011682018060405250810190610ea89190611f3a565b5050565b801580610f265750604051636eb1769f60e11b81523060048201526001600160a01b03838116602483015284169063dd62ed3e90604401602060405180830381865afa158015610f00573d6000803e3d6000fd5b505050506040513d601f19601f82011682018060405250810190610f249190611ec0565b155b610f915760405162461bcd60e51b815260206004820152603660248201527f5361666545524332303a20617070726f76652066726f6d206e6f6e2d7a65726f60448201527520746f206e6f6e2d7a65726f20616c6c6f77616e636560501b60648201526084016109f8565b6040516001600160a01b03831660248201526044810182905261088a90849063095ea7b360e01b906064015b60408051601f198184030181529190526020810180516001600160e01b03166001600160e01b031990931692909217909152611572565b60606110038484600085611644565b90505b9392505050565b6040516001600160a01b03831660248201526044810182905261088a90849063a9059cbb60e01b90606401610fbd565b611045611775565b6000805460ff60a01b191690557f5db9ee0a495bf2e6ff9c91a7834c1ba4fdd244a5e8aa4e537bd38aeae4b073aa335b6040516001600160a01b03909116815260200160405180910390a1565b6008546005546110b1916001600160a01b039182169116600019610eac565b6002546004546110d0916001600160a01b039182169116600019610eac565b6002546006546110ee916001600160a01b0391821691166000610eac565b60025460065461110d916001600160a01b039182169116600019610eac565b60025460075461112b916001600160a01b0391821691166000610eac565b6002546007546107d1916001600160a01b039182169116600019610eac565b6111526117c5565b6005546040516370a0823160e01b81523060048201526000916001600160a01b0316906370a0823190602401602060405180830381865afa15801561119b573d6000803e3d6000fd5b505050506040513d601f19601f820116820180604052508101906111bf9190611ec0565b90508015610d4c57600854600954604051631c57762b60e31b81526001600160a01b039092169163e2bbb15891611203918590600401918252602082015260400190565b600060405180830381600087803b15801561121d57600080fd5b505af1158015611231573d6000803e3d6000fd5b505050507f4d6ce1e535dbade1c23defba91e23b8f791ce5edc0cc320257a2b364e4e3842661125e6108fe565b6040519081526020016108e1565b6000546001600160a01b031633146107d15760405162461bcd60e51b815260206004820181905260248201527f4f776e61626c653a2063616c6c6572206973206e6f7420746865206f776e657260448201526064016109f8565b600080546001600160a01b038381166001600160a01b0319831681178455604051919092169283917f8be0079c531659141344cd1fd0a4f28419497f9722a3daafe3b4186f6b6457e09190a35050565b61131e6117c5565b6000805460ff60a01b1916600160a01b1790557f62e78cea01bee320cd4e420270b5ea74000d11b0c9f74754ebdbfc544b05a2586110753390565b600854600554611377916001600160a01b0391821691166000610eac565b600254600454611395916001600160a01b0391821691166000610eac565b6002546006546113b3916001600160a01b0391821691166000610eac565b6002546007546107d1916001600160a01b0391821691166000610eac565b6113d96117c5565b600854600954604051631c57762b60e31b81526004810191909152600060248201526001600160a01b039091169063e2bbb15890604401600060405180830381600087803b15801561142a57600080fd5b505af115801561143e573d6000803e3d6000fd5b5050600480546040516370a0823160e01b81523092810192909252600093506001600160a01b031691506370a0823190602401602060405180830381865afa15801561148e573d6000803e3d6000fd5b505050506040513d601f19601f820116820180604052508101906114b29190611ec0565b90508015610d4c576114c2611812565b60006114cc610573565b90506114d661114a565b42600a55337f9bc239f1724cacfb88cb1d66a2dc437467699b68a8c90d7b63110cf4b6f92410826115056108fe565b6040805192835260208301919091520160405180910390a25050565b60608282604051602001611536929190611f5c565b604051602081830303815290604052905092915050565b6060611006838360405180606001604052806025815260200161212660259139611b56565b60006115c7826040518060400160405280602081526020017f5361666545524332303a206c6f772d6c6576656c2063616c6c206661696c6564815250856001600160a01b0316610ff49092919063ffffffff16565b80519091501561088a57808060200190518101906115e59190611f3a565b61088a5760405162461bcd60e51b815260206004820152602a60248201527f5361666545524332303a204552433230206f7065726174696f6e20646964206e6044820152691bdd081cdd58d8d9595960b21b60648201526084016109f8565b6060824710156116a55760405162461bcd60e51b815260206004820152602660248201527f416464726573733a20696e73756666696369656e742062616c616e636520666f6044820152651c8818d85b1b60d21b60648201526084016109f8565b6001600160a01b0385163b6116fc5760405162461bcd60e51b815260206004820152601d60248201527f416464726573733a2063616c6c20746f206e6f6e2d636f6e747261637400000060448201526064016109f8565b600080866001600160a01b031685876040516117189190611f1e565b60006040518083038185875af1925050503d8060008114611755576040519150601f19603f3d011682016040523d82523d6000602084013e61175a565b606091505b509150915061176a828286611c30565b979650505050505050565b600054600160a01b900460ff166107d15760405162461bcd60e51b815260206004820152601460248201527314185d5cd8589b194e881b9bdd081c185d5cd95960621b60448201526064016109f8565b600054600160a01b900460ff16156107d15760405162461bcd60e51b815260206004820152601060248201526f14185d5cd8589b194e881c185d5cd95960821b60448201526064016109f8565b600480546040516370a0823160e01b815230928101929092526000916002916001600160a01b0316906370a0823190602401602060405180830381865afa158015611861573d6000803e3d6000fd5b505050506040513d601f19601f820116820180604052508101906118859190611ec0565b61188f9190611f8b565b6004546006549192506001600160a01b0391821691161461192d576002546040516338ed173960e01b81526001600160a01b03909116906338ed1739906118e4908490600090600c9030904290600401611fad565b6000604051808303816000875af1158015611903573d6000803e3d6000fd5b505050506040513d6000823e601f3d908101601f1916820160405261192b9190810190612039565b505b6004546007546001600160a01b039081169116146119c8576002546040516338ed173960e01b81526001600160a01b03909116906338ed17399061197f908490600090600d9030904290600401611fad565b6000604051808303816000875af115801561199e573d6000803e3d6000fd5b505050506040513d6000823e601f3d908101601f191682016040526119c69190810190612039565b505b6006546040516370a0823160e01b81523060048201526000916001600160a01b0316906370a0823190602401602060405180830381865afa158015611a11573d6000803e3d6000fd5b505050506040513d601f19601f82011682018060405250810190611a359190611ec0565b6007546040516370a0823160e01b81523060048201529192506000916001600160a01b03909116906370a0823190602401602060405180830381865afa158015611a83573d6000803e3d6000fd5b505050506040513d601f19601f82011682018060405250810190611aa79190611ec0565b60025460065460075460405162e8e33760e81b81526001600160a01b0392831660048201529082166024820152604481018690526064810184905260016084820181905260a48201523060c48201524260e4820152929350169063e8e3370090610104016060604051808303816000875af1158015611b2a573d6000803e3d6000fd5b505050506040513d601f19601f82011682018060405250810190611b4e91906120f7565b505050505050565b60606001600160a01b0384163b611bbb5760405162461bcd60e51b8152602060048201526024808201527f416464726573733a207374617469632063616c6c20746f206e6f6e2d636f6e746044820152631c9858dd60e21b60648201526084016109f8565b600080856001600160a01b031685604051611bd69190611f1e565b600060405180830381855afa9150503d8060008114611c11576040519150601f19603f3d011682016040523d82523d6000602084013e611c16565b606091505b5091509150611c26828286611c30565b9695505050505050565b60608315611c3f575081611006565b825115611c4f5782518084602001fd5b8160405162461bcd60e51b81526004016109f89190611d2e565b828054611c7590611e86565b90600052602060002090601f016020900481019282611c975760008555611cdd565b82601f10611cb05782800160ff19823516178555611cdd565b82800160010185558215611cdd579182015b82811115611cdd578235825591602001919060010190611cc2565b50611ce9929150611ced565b5090565b5b80821115611ce95760008155600101611cee565b60005b83811015611d1d578181015183820152602001611d05565b838111156108465750506000910152565b6020815260008251806020840152611d4d816040850160208701611d02565b601f01601f19169190910160400192915050565b600060208284031215611d7357600080fd5b5035919050565b60008060208385031215611d8d57600080fd5b823567ffffffffffffffff80821115611da557600080fd5b818501915085601f830112611db957600080fd5b813581811115611dc857600080fd5b866020828501011115611dda57600080fd5b60209290920196919550909350505050565b600060208284031215611dfe57600080fd5b81356001600160a01b038116811461100657600080fd5b6020808252825182820181905260009190848201906040850190845b81811015611e565783516001600160a01b031683529284019291840191600101611e31565b50909695505050505050565b60008060408385031215611e7557600080fd5b505080516020909101519092909150565b600181811c90821680611e9a57607f821691505b602082108103611eba57634e487b7160e01b600052602260045260246000fd5b50919050565b600060208284031215611ed257600080fd5b5051919050565b634e487b7160e01b600052601160045260246000fd5b600082821015611f0157611f01611ed9565b500390565b60008219821115611f1957611f19611ed9565b500190565b60008251611f30818460208701611d02565b9190910192915050565b600060208284031215611f4c57600080fd5b8151801515811461100657600080fd5b60008351611f6e818460208801611d02565b835190830190611f82818360208801611d02565b01949350505050565b600082611fa857634e487b7160e01b600052601260045260246000fd5b500490565b600060a082018783526020878185015260a0604085015281875480845260c0860191508860005282600020935060005b818110156120025784546001600160a01b031683526001948501949284019201611fdd565b50506001600160a01b03969096166060850152505050608001529392505050565b634e487b7160e01b600052604160045260246000fd5b6000602080838503121561204c57600080fd5b825167ffffffffffffffff8082111561206457600080fd5b818501915085601f83011261207857600080fd5b81518181111561208a5761208a612023565b8060051b604051601f19603f830116810181811085821117156120af576120af612023565b6040529182528482019250838101850191888311156120cd57600080fd5b938501935b828510156120eb578451845293850193928501926120d2565b98975050505050505050565b60008060006060848603121561210c57600080fd5b835192506020840151915060408401519050925092509256fe416464726573733a206c6f772d6c6576656c207374617469632063616c6c206661696c6564a2646970667358221220c7e8e68f4e83d0be081c0a494df87338c32eb0cba39435e74ca595615d04204b64736f6c634300080d0033a26469706673582212206c19f7f1d2cbe0ccff9b6c9063ff5d69d7ae04dc54c8cda95cbbaa724a688aed64736f6c634300080d0033",
  "linkReferences": {},
  "deployedLinkReferences": {}
}