{
  "_format": "hh-sol-artifact-1",
  "contractName": "CakeLpStakingV1",
  "sourceName": "src/strategies/cake/CakeLpStakingV1.sol",
  "abi": [
    {
      "inputs": [
        {
          "components": [
            {
              "internalType": "address",
              "name": "stake",
              "type": "address"
            },
            {
              "internalType": "uint256",
              "name": "poolId",
              "type": "uint256"
            },
            {
              "internalType": "address",
              "name": "chef",
              "type": "address"
            },
            {
              "internalType": "address[]",
              "name": "rewardToLp0Route",
              "type": "address[]"
            },
            {
              "internalType": "address[]",
              "name": "rewardToLp1Route",
              "type": "address[]"
            }
          ],
          "internalType": "struct CakePoolParams",
          "name": "_cakePoolParams",
          "type": "tuple"
        },
        {
          "components": [
            {
              "internalType": "address",
              "name": "vault",
              "type": "address"
            },
            {
              "internalType": "address",
              "name": "router",
              "type": "address"
            },
            {
              "internalType": "address",
              "name": "manager",
              "type": "address"
            }
          ],
          "internalType": "struct CommonAddresses",
          "name": "_commonAddresses",
          "type": "tuple"
        }
      ],
      "stateMutability": "nonpayable",
      "type": "constructor"
    },
    {
      "anonymous": false,
      "inputs": [
        {
          "indexed": false,
          "internalType": "uint256",
          "name": "tvl",
          "type": "uint256"
        }
      ],
      "name": "Deposit",
      "type": "event"
    },
    {
      "anonymous": false,
      "inputs": [
        {
          "indexed": true,
          "internalType": "address",
          "name": "previousOwner",
          "type": "address"
        },
        {
          "indexed": true,
          "internalType": "address",
          "name": "newOwner",
          "type": "address"
        }
      ],
      "name": "OwnershipTransferred",
      "type": "event"
    },
    {
      "anonymous": false,
      "inputs": [
        {
          "indexed": false,
          "internalType": "address",
          "name": "account",
          "type": "address"
        }
      ],
      "name": "Paused",
      "type": "event"
    },
    {
      "anonymous": false,
      "inputs": [
        {
          "indexed": false,
          "internalType": "address",
          "name": "manager",
          "type": "address"
        }
      ],
      "name": "SetManager",
      "type": "event"
    },
    {
      "anonymous": false,
      "inputs": [
        {
          "indexed": false,
          "internalType": "address",
          "name": "unirouter",
          "type": "address"
        }
      ],
      "name": "SetRouter",
      "type": "event"
    },
    {
      "anonymous": false,
      "inputs": [
        {
          "indexed": false,
          "internalType": "address",
          "name": "vault",
          "type": "address"
        }
      ],
      "name": "SetVault",
      "type": "event"
    },
    {
      "anonymous": false,
      "inputs": [
        {
          "indexed": true,
          "internalType": "address",
          "name": "harvester",
          "type": "address"
        },
        {
          "indexed": false,
          "internalType": "uint256",
          "name": "stakeHarvested",
          "type": "uint256"
        },
        {
          "indexed": false,
          "internalType": "uint256",
          "name": "tvl",
          "type": "uint256"
        }
      ],
      "name": "StratHarvest",
      "type": "event"
    },
    {
      "anonymous": false,
      "inputs": [
        {
          "indexed": false,
          "internalType": "address",
          "name": "account",
          "type": "address"
        }
      ],
      "name": "Unpaused",
      "type": "event"
    },
    {
      "anonymous": false,
      "inputs": [
        {
          "indexed": false,
          "internalType": "uint256",
          "name": "tvl",
          "type": "uint256"
        }
      ],
      "name": "Withdraw",
      "type": "event"
    },
    {
      "inputs": [],
      "name": "balanceOf",
      "outputs": [
        {
          "internalType": "uint256",
          "name": "",
          "type": "uint256"
        }
      ],
      "stateMutability": "view",
      "type": "function"
    },
    {
      "inputs": [],
      "name": "balanceOfPool",
      "outputs": [
        {
          "internalType": "uint256",
          "name": "",
          "type": "uint256"
        }
      ],
      "stateMutability": "view",
      "type": "function"
    },
    {
      "inputs": [],
      "name": "balanceOfStake",
      "outputs": [
        {
          "internalType": "uint256",
          "name": "",
          "type": "uint256"
        }
      ],
      "stateMutability": "view",
      "type": "function"
    },
    {
      "inputs": [],
      "name": "beforeDeposit",
      "outputs": [],
      "stateMutability": "nonpayable",
      "type": "function"
    },
    {
      "inputs": [],
      "name": "chef",
      "outputs": [
        {
          "internalType": "address",
          "name": "",
          "type": "address"
        }
      ],
      "stateMutability": "view",
      "type": "function"
    },
    {
      "inputs": [],
      "name": "deposit",
      "outputs": [],
      "stateMutability": "nonpayable",
      "type": "function"
    },
    {
      "inputs": [],
      "name": "lastHarvest",
      "outputs": [
        {
          "internalType": "uint256",
          "name": "",
          "type": "uint256"
        }
      ],
      "stateMutability": "view",
      "type": "function"
    },
    {
      "inputs": [],
      "name": "lpToken0",
      "outputs": [
        {
          "internalType": "address",
          "name": "",
          "type": "address"
        }
      ],
      "stateMutability": "view",
      "type": "function"
    },
    {
      "inputs": [],
      "name": "lpToken1",
      "outputs": [
        {
          "internalType": "address",
          "name": "",
          "type": "address"
        }
      ],
      "stateMutability": "view",
      "type": "function"
    },
    {
      "inputs": [],
      "name": "manager",
      "outputs": [
        {
          "internalType": "address",
          "name": "",
          "type": "address"
        }
      ],
      "stateMutability": "view",
      "type": "function"
    },
    {
      "inputs": [],
      "name": "managerHarvest",
      "outputs": [],
      "stateMutability": "nonpayable",
      "type": "function"
    },
    {
      "inputs": [],
      "name": "onlyManager",
      "outputs": [],
      "stateMutability": "view",
      "type": "function"
    },
    {
      "inputs": [],
      "name": "onlyVault",
      "outputs": [],
      "stateMutability": "view",
      "type": "function"
    },
    {
      "inputs": [],
      "name": "owner",
      "outputs": [
        {
          "internalType": "address",
          "name": "",
          "type": "address"
        }
      ],
      "stateMutability": "view",
      "type": "function"
    },
    {
      "inputs": [],
      "name": "panic",
      "outputs": [],
      "stateMutability": "nonpayable",
      "type": "function"
    },
    {
      "inputs": [],
      "name": "pause",
      "outputs": [],
      "stateMutability": "nonpayable",
      "type": "function"
    },
    {
      "inputs": [],
      "name": "paused",
      "outputs": [
        {
          "internalType": "bool",
          "name": "",
          "type": "bool"
        }
      ],
      "stateMutability": "view",
      "type": "function"
    },
    {
      "inputs": [],
      "name": "pendingRewardsFunctionName",
      "outputs": [
        {
          "internalType": "string",
          "name": "",
          "type": "string"
        }
      ],
      "stateMutability": "view",
      "type": "function"
    },
    {
      "inputs": [],
      "name": "poolId",
      "outputs": [
        {
          "internalType": "uint256",
          "name": "",
          "type": "uint256"
        }
      ],
      "stateMutability": "view",
      "type": "function"
    },
    {
      "inputs": [],
      "name": "renounceOwnership",
      "outputs": [],
      "stateMutability": "nonpayable",
      "type": "function"
    },
    {
      "inputs": [],
      "name": "retireStrat",
      "outputs": [],
      "stateMutability": "nonpayable",
      "type": "function"
    },
    {
      "inputs": [],
      "name": "reward",
      "outputs": [
        {
          "internalType": "address",
          "name": "",
          "type": "address"
        }
      ],
      "stateMutability": "view",
      "type": "function"
    },
    {
      "inputs": [],
      "name": "rewardToLp0",
      "outputs": [
        {
          "internalType": "address[]",
          "name": "",
          "type": "address[]"
        }
      ],
      "stateMutability": "view",
      "type": "function"
    },
    {
      "inputs": [
        {
          "internalType": "uint256",
          "name": "",
          "type": "uint256"
        }
      ],
      "name": "rewardToLp0Route",
      "outputs": [
        {
          "internalType": "address",
          "name": "",
          "type": "address"
        }
      ],
      "stateMutability": "view",
      "type": "function"
    },
    {
      "inputs": [],
      "name": "rewardToLp1",
      "outputs": [
        {
          "internalType": "address[]",
          "name": "",
          "type": "address[]"
        }
      ],
      "stateMutability": "view",
      "type": "function"
    },
    {
      "inputs": [
        {
          "internalType": "uint256",
          "name": "",
          "type": "uint256"
        }
      ],
      "name": "rewardToLp1Route",
      "outputs": [
        {
          "internalType": "address",
          "name": "",
          "type": "address"
        }
      ],
      "stateMutability": "view",
      "type": "function"
    },
    {
      "inputs": [],
      "name": "rewardsAvailable",
      "outputs": [
        {
          "internalType": "uint256",
          "name": "",
          "type": "uint256"
        }
      ],
      "stateMutability": "view",
      "type": "function"
    },
    {
      "inputs": [],
      "name": "router",
      "outputs": [
        {
          "internalType": "address",
          "name": "",
          "type": "address"
        }
      ],
      "stateMutability": "view",
      "type": "function"
    },
    {
      "inputs": [
        {
          "internalType": "address",
          "name": "_manager",
          "type": "address"
        }
      ],
      "name": "setManager",
      "outputs": [],
      "stateMutability": "nonpayable",
      "type": "function"
    },
    {
      "inputs": [
        {
          "internalType": "string",
          "name": "_pendingRewardsFunctionName",
          "type": "string"
        }
      ],
      "name": "setPendingRewardsFunctionName",
      "outputs": [],
      "stateMutability": "nonpayable",
      "type": "function"
    },
    {
      "inputs": [
        {
          "internalType": "address",
          "name": "_router",
          "type": "address"
        }
      ],
      "name": "setRouter",
      "outputs": [],
      "stateMutability": "nonpayable",
      "type": "function"
    },
    {
      "inputs": [
        {
          "internalType": "address",
          "name": "_vault",
          "type": "address"
        }
      ],
      "name": "setVault",
      "outputs": [],
      "stateMutability": "nonpayable",
      "type": "function"
    },
    {
      "inputs": [],
      "name": "stake",
      "outputs": [
        {
          "internalType": "address",
          "name": "",
          "type": "address"
        }
      ],
      "stateMutability": "view",
      "type": "function"
    },
    {
      "inputs": [
        {
          "internalType": "address",
          "name": "newOwner",
          "type": "address"
        }
      ],
      "name": "transferOwnership",
      "outputs": [],
      "stateMutability": "nonpayable",
      "type": "function"
    },
    {
      "inputs": [],
      "name": "unpause",
      "outputs": [],
      "stateMutability": "nonpayable",
      "type": "function"
    },
    {
      "inputs": [],
      "name": "vault",
      "outputs": [
        {
          "internalType": "address",
          "name": "",
          "type": "address"
        }
      ],
      "stateMutability": "view",
      "type": "function"
    },
    {
      "inputs": [
        {
          "internalType": "uint256",
          "name": "_amount",
          "type": "uint256"
        }
      ],
      "name": "withdraw",
      "outputs": [],
      "stateMutability": "nonpayable",
      "type": "function"
    }
  ],
  "bytecode": "0x60806040523480156200001157600080fd5b5060405162002efe38038062002efe833981016040819052620000349162000b6f565b80620000403362000456565b6000805460ff60a01b191681558151600180546001600160a01b03199081166001600160a01b03938416179091556020808501516002805484169185169190911790556040948501516003805484169185169190911790558651600580548416918516919091179055860151600955928501516008805490941691161790915560608301516080840151815191929091839190620000e257620000e262000c50565b602090810291909101810151600480546001600160a01b0319166001600160a01b0392831617815560055460408051630dfe168160e01b815290519190931693630dfe16819380840193919291908290030181865afa1580156200014a573d6000803e3d6000fd5b505050506040513d601f19601f8201168201806040525081019062000170919062000c66565b600680546001600160a01b0319166001600160a01b0392831617905560045483519116908390600090620001a857620001a862000c50565b60200260200101516001600160a01b031614620002005760405162461bcd60e51b815260206004820152601160248201527021726577617264546f4c7030526f75746560781b60448201526064015b60405180910390fd5b60065482516001600160a01b03909116908390620002219060019062000c84565b8151811062000234576200023462000c50565b60200260200101516001600160a01b031614620002885760405162461bcd60e51b815260206004820152601160248201527021726577617264546f4c7030526f75746560781b6044820152606401620001f7565b81516200029d90600c90602085019062000976565b50600560009054906101000a90046001600160a01b03166001600160a01b031663d21220a76040518163ffffffff1660e01b8152600401602060405180830381865afa158015620002f2573d6000803e3d6000fd5b505050506040513d601f19601f8201168201806040525081019062000318919062000c66565b600780546001600160a01b0319166001600160a01b039283161790556004548251911690829060009062000350576200035062000c50565b60200260200101516001600160a01b031614620003a45760405162461bcd60e51b815260206004820152601160248201527021726577617264546f4c7031526f75746560781b6044820152606401620001f7565b60075481516001600160a01b03909116908290620003c59060019062000c84565b81518110620003d857620003d862000c50565b60200260200101516001600160a01b0316146200042c5760405162461bcd60e51b815260206004820152601160248201527021726577617264546f4c7031526f75746560781b6044820152606401620001f7565b80516200044190600d90602084019062000976565b506200044c620004a6565b5050505062000d6e565b600080546001600160a01b038381166001600160a01b0319831681178455604051919092169283917f8be0079c531659141344cd1fd0a4f28419497f9722a3daafe3b4186f6b6457e09190a35050565b600854600554620004d3916001600160a01b039182169116600019620005b4602090811b62000eac17901c565b60025460045462000500916001600160a01b039182169116600019620005b4602090811b62000eac17901c565b6002546006546200052c916001600160a01b0391821691166000620005b4602090811b62000eac17901c565b60025460065462000559916001600160a01b039182169116600019620005b4602090811b62000eac17901c565b60025460075462000585916001600160a01b0391821691166000620005b4602090811b62000eac17901c565b600254600754620005b2916001600160a01b039182169116600019620005b4602090811b62000eac17901c565b565b801580620006325750604051636eb1769f60e11b81523060048201526001600160a01b03838116602483015284169063dd62ed3e90604401602060405180830381865afa1580156200060a573d6000803e3d6000fd5b505050506040513d601f19601f8201168201806040525081019062000630919062000caa565b155b620006a65760405162461bcd60e51b815260206004820152603660248201527f5361666545524332303a20617070726f76652066726f6d206e6f6e2d7a65726f60448201527f20746f206e6f6e2d7a65726f20616c6c6f77616e6365000000000000000000006064820152608401620001f7565b604080516001600160a01b038416602482015260448082018490528251808303909101815260649091019091526020810180516001600160e01b0390811663095ea7b360e01b17909152620006fe9185916200070316565b505050565b60006200075f826040518060400160405280602081526020017f5361666545524332303a206c6f772d6c6576656c2063616c6c206661696c6564815250856001600160a01b0316620007e160201b62000ff4179092919060201c565b805190915015620006fe578080602001905181019062000780919062000cc4565b620006fe5760405162461bcd60e51b815260206004820152602a60248201527f5361666545524332303a204552433230206f7065726174696f6e20646964206e6044820152691bdd081cdd58d8d9595960b21b6064820152608401620001f7565b6060620007f28484600085620007fc565b90505b9392505050565b6060824710156200085f5760405162461bcd60e51b815260206004820152602660248201527f416464726573733a20696e73756666696369656e742062616c616e636520666f6044820152651c8818d85b1b60d21b6064820152608401620001f7565b6001600160a01b0385163b620008b85760405162461bcd60e51b815260206004820152601d60248201527f416464726573733a2063616c6c20746f206e6f6e2d636f6e74726163740000006044820152606401620001f7565b600080866001600160a01b03168587604051620008d6919062000d1b565b60006040518083038185875af1925050503d806000811462000915576040519150601f19603f3d011682016040523d82523d6000602084013e6200091a565b606091505b5090925090506200092d82828662000938565b979650505050505050565b6060831562000949575081620007f5565b8251156200095a5782518084602001fd5b8160405162461bcd60e51b8152600401620001f7919062000d39565b828054828255906000526020600020908101928215620009ce579160200282015b82811115620009ce57825182546001600160a01b0319166001600160a01b0390911617825560209092019160019091019062000997565b50620009dc929150620009e0565b5090565b5b80821115620009dc5760008155600101620009e1565b634e487b7160e01b600052604160045260246000fd5b60405160a081016001600160401b038111828210171562000a325762000a32620009f7565b60405290565b80516001600160a01b038116811462000a5057600080fd5b919050565b600082601f83011262000a6757600080fd5b815160206001600160401b038083111562000a865762000a86620009f7565b8260051b604051601f19603f8301168101818110848211171562000aae5762000aae620009f7565b60405293845285810183019383810192508785111562000acd57600080fd5b83870191505b848210156200092d5762000ae78262000a38565b8352918301919083019062000ad3565b60006060828403121562000b0a57600080fd5b604051606081016001600160401b038111828210171562000b2f5762000b2f620009f7565b60405290508062000b408362000a38565b815262000b506020840162000a38565b602082015262000b636040840162000a38565b60408201525092915050565b6000806080838503121562000b8357600080fd5b82516001600160401b038082111562000b9b57600080fd5b9084019060a0828703121562000bb057600080fd5b62000bba62000a0d565b62000bc58362000a38565b81526020830151602082015262000bdf6040840162000a38565b604082015260608301518281111562000bf757600080fd5b62000c058882860162000a55565b60608301525060808301518281111562000c1e57600080fd5b62000c2c8882860162000a55565b60808301525080945050505062000c47846020850162000af7565b90509250929050565b634e487b7160e01b600052603260045260246000fd5b60006020828403121562000c7957600080fd5b620007f58262000a38565b60008282101562000ca557634e487b7160e01b600052601160045260246000fd5b500390565b60006020828403121562000cbd57600080fd5b5051919050565b60006020828403121562000cd757600080fd5b81518015158114620007f557600080fd5b60005b8381101562000d0557818101518382015260200162000ceb565b8381111562000d15576000848401525b50505050565b6000825162000d2f81846020870162000ce8565b9190910192915050565b602081526000825180602084015262000d5a81604085016020870162000ce8565b601f01601f19169190910160400192915050565b6121808062000d7e6000396000f3fe608060405234801561001057600080fd5b50600436106102275760003560e01c8063722713f711610130578063d0e30db0116100b8578063f1a392da1161007c578063f1a392da14610419578063f2fde38b14610422578063f887ea4014610435578063fb61778714610448578063fbfa77cf1461045057600080fd5b8063d0e30db0146103e6578063d0ebdbe7146103ee578063d801d94614610401578063e7a7250a14610409578063ef21c9941461041157600080fd5b8063a11d3556116100ff578063a11d35561461039b578063a839d5e6146103b0578063b3a9c91c146103c3578063be3fbd1c146103cb578063c0d78655146103d357600080fd5b8063722713f7146103675780638456cb591461036f578063877562b6146103775780638da5cb5b1461038a57600080fd5b80634700d305116101b357806359e791381161018257806359e79138146103095780635c975abb1461031c5780635ee167c0146103395780636817031b1461034c578063715018a61461035f57600080fd5b80634700d305146102db57806348162c79146102e3578063481c6a75146102f6578063573fef0a146102b557600080fd5b8063286a876b116101fa578063286a876b1461029a5780632e1a7d4d146102a25780633a4b66f1146102b75780633e0dc34e146102ca5780633f4ba83a146102d357600080fd5b8063115880861461022c5780631fc8bc5d14610247578063228cb73314610272578063277e5cfd14610285575b600080fd5b610234610463565b6040519081526020015b60405180910390f35b60085461025a906001600160a01b031681565b6040516001600160a01b03909116815260200161023e565b60045461025a906001600160a01b031681565b61028d6104e5565b60405161023e9190611d2e565b610234610573565b6102b56102b0366004611d61565b6105e5565b005b60055461025a906001600160a01b031681565b61023460095481565b6102b56107b1565b6102b56107d3565b61025a6102f1366004611d61565b61084c565b60035461025a906001600160a01b031681565b6102b5610317366004611d7a565b610876565b600054600160a01b900460ff16604051901515815260200161023e565b60065461025a906001600160a01b031681565b6102b561035a366004611dec565b61088f565b6102b56108ec565b6102346108fe565b6102b561091a565b60075461025a906001600160a01b031681565b6000546001600160a01b031661025a565b6103a3610932565b60405161023e9190611e15565b61025a6103be366004611d61565b610994565b6102b56109a4565b6103a3610a01565b6102b56103e1366004611dec565b610a61565b6102b5610ab7565b6102b56103fc366004611dec565b610abf565b6102b5610b15565b610234610b25565b6102b5610c7c565b610234600a5481565b6102b5610430366004611dec565b610cd6565b60025461025a906001600160a01b031681565b6102b5610d4f565b60015461025a906001600160a01b031681565b6008546009546040516393f1a40b60e01b8152600481019190915230602482015260009182916001600160a01b03909116906393f1a40b906044016040805180830381865afa1580156104ba573d6000803e3d6000fd5b505050506040513d601f19601f820116820180604052508101906104de9190611e62565b5092915050565b600b80546104f290611e86565b80601f016020809104026020016040519081016040528092919081815260200182805461051e90611e86565b801561056b5780601f106105405761010080835404028352916020019161056b565b820191906000526020600020905b81548152906001019060200180831161054e57829003601f168201915b505050505081565b6005546040516370a0823160e01b81523060048201526000916001600160a01b0316906370a0823190602401602060405180830381865afa1580156105bc573d6000803e3d6000fd5b505050506040513d601f19601f820116820180604052508101906105e09190611ec0565b905090565b6105ed6109a4565b6005546040516370a0823160e01b81523060048201526000916001600160a01b0316906370a0823190602401602060405180830381865afa158015610636573d6000803e3d6000fd5b505050506040513d601f19601f8201168201806040525081019061065a9190611ec0565b90508181101561074b576008546009546001600160a01b039091169063441a3e70906106868486611eef565b6040516001600160e01b031960e085901b16815260048101929092526024820152604401600060405180830381600087803b1580156106c457600080fd5b505af11580156106d8573d6000803e3d6000fd5b50506005546040516370a0823160e01b81523060048201526001600160a01b0390911692506370a082319150602401602060405180830381865afa158015610724573d6000803e3d6000fd5b505050506040513d601f19601f820116820180604052508101906107489190611ec0565b90505b818111156107565750805b600154600554610773916001600160a01b0391821691168361100d565b7f5b6b431d4476a211bb7d41c20d1aab9ae2321deee0d20be3d9fc9b1093fa6e3d61079c6108fe565b60405190815260200160405180910390a15050565b6107b9610c7c565b6107c161103d565b6107c9611092565b6107d161114a565b565b6107db610c7c565b6107e361091a565b600854600954604051632989754760e11b81526001600160a01b0390921691635312ea8e916108189160040190815260200190565b600060405180830381600087803b15801561083257600080fd5b505af1158015610846573d6000803e3d6000fd5b50505050565b600c818154811061085c57600080fd5b6000918252602090912001546001600160a01b0316905081565b61087e610c7c565b61088a600b8383611c69565b505050565b61089761126c565b600180546001600160a01b0319166001600160a01b0383169081179091556040519081527fd459c7242e23d490831b5676a611c4342d899d28f342d89ae80793e56a930f30906020015b60405180910390a150565b6108f461126c565b6107d160006112c6565b6000610908610463565b610910610573565b6105e09190611f06565b610922610c7c565b61092a611316565b6107d1611359565b6060600d80548060200260200160405190810160405280929190818152602001828054801561098a57602002820191906000526020600020905b81546001600160a01b0316815260019091019060200180831161096c575b5050505050905090565b600d818154811061085c57600080fd5b6000546001600160a01b03163314806109c757506001546001600160a01b031633145b6107d15760405162461bcd60e51b8152602060048201526006602482015265085d985d5b1d60d21b60448201526064015b60405180910390fd5b6060600c80548060200260200160405190810160405280929190818152602001828054801561098a576020028201919060005260206000209081546001600160a01b0316815260019091019060200180831161096c575050505050905090565b610a6961126c565b600280546001600160a01b0319166001600160a01b0383169081179091556040519081527f6de4326a8b9054d72d9dbab97d27bc4edffadee7d966f5af9cc4eafdaf8e5455906020016108e1565b6107c96109a4565b610ac7610c7c565b600380546001600160a01b0319166001600160a01b0383169081179091556040519081527f54a6385aa0292b04e1ef8513253c17d1863f7cdfc87029d77fd55cc4c2e717e2906020016108e1565b610b1d610c7c565b6107d16113d1565b600080610be5600b8054610b3890611e86565b80601f0160208091040260200160405190810160405280929190818152602001828054610b6490611e86565b8015610bb15780601f10610b8657610100808354040283529160200191610bb1565b820191906000526020600020905b815481529060010190602001808311610b9457829003601f168201915b5050505050604051806040016040528060118152602001702875696e743235362c616464726573732960781b815250611521565b6008546009546040516024810191909152306044820152919250600091610c5f916001600160a01b031690849060640160408051601f198184030181529082905291610c3091611f1e565b6040519081900390206020820180516001600160e01b03166001600160e01b031990921691909117905261154d565b905080806020019051810190610c759190611ec0565b9250505090565b6000546001600160a01b0316331480610c9f57506003546001600160a01b031633145b6107d15760405162461bcd60e51b815260206004820152600860248201526710b6b0b730b3b2b960c11b60448201526064016109f8565b610cde61126c565b6001600160a01b038116610d435760405162461bcd60e51b815260206004820152602660248201527f4f776e61626c653a206e6577206f776e657220697320746865207a65726f206160448201526564647265737360d01b60648201526084016109f8565b610d4c816112c6565b50565b610d576109a4565b600854600954604051632989754760e11b81526001600160a01b0390921691635312ea8e91610d8c9160040190815260200190565b600060405180830381600087803b158015610da657600080fd5b505af1158015610dba573d6000803e3d6000fd5b50506005546040516370a0823160e01b8152306004820152600093506001600160a01b0390911691506370a0823190602401602060405180830381865afa158015610e09573d6000803e3d6000fd5b505050506040513d601f19601f82011682018060405250810190610e2d9190611ec0565b60055460015460405163a9059cbb60e01b81526001600160a01b03918216600482015260248101849052929350169063a9059cbb906044016020604051808303816000875af1158015610e84573d6000803e3d6000fd5b505050506040513d601f19601f82011682018060405250810190610ea89190611f3a565b5050565b801580610f265750604051636eb1769f60e11b81523060048201526001600160a01b03838116602483015284169063dd62ed3e90604401602060405180830381865afa158015610f00573d6000803e3d6000fd5b505050506040513d601f19601f82011682018060405250810190610f249190611ec0565b155b610f915760405162461bcd60e51b815260206004820152603660248201527f5361666545524332303a20617070726f76652066726f6d206e6f6e2d7a65726f60448201527520746f206e6f6e2d7a65726f20616c6c6f77616e636560501b60648201526084016109f8565b6040516001600160a01b03831660248201526044810182905261088a90849063095ea7b360e01b906064015b60408051601f198184030181529190526020810180516001600160e01b03166001600160e01b031990931692909217909152611572565b60606110038484600085611644565b90505b9392505050565b6040516001600160a01b03831660248201526044810182905261088a90849063a9059cbb60e01b90606401610fbd565b611045611775565b6000805460ff60a01b191690557f5db9ee0a495bf2e6ff9c91a7834c1ba4fdd244a5e8aa4e537bd38aeae4b073aa335b6040516001600160a01b03909116815260200160405180910390a1565b6008546005546110b1916001600160a01b039182169116600019610eac565b6002546004546110d0916001600160a01b039182169116600019610eac565b6002546006546110ee916001600160a01b0391821691166000610eac565b60025460065461110d916001600160a01b039182169116600019610eac565b60025460075461112b916001600160a01b0391821691166000610eac565b6002546007546107d1916001600160a01b039182169116600019610eac565b6111526117c5565b6005546040516370a0823160e01b81523060048201526000916001600160a01b0316906370a0823190602401602060405180830381865afa15801561119b573d6000803e3d6000fd5b505050506040513d601f19601f820116820180604052508101906111bf9190611ec0565b90508015610d4c57600854600954604051631c57762b60e31b81526001600160a01b039092169163e2bbb15891611203918590600401918252602082015260400190565b600060405180830381600087803b15801561121d57600080fd5b505af1158015611231573d6000803e3d6000fd5b505050507f4d6ce1e535dbade1c23defba91e23b8f791ce5edc0cc320257a2b364e4e3842661125e6108fe565b6040519081526020016108e1565b6000546001600160a01b031633146107d15760405162461bcd60e51b815260206004820181905260248201527f4f776e61626c653a2063616c6c6572206973206e6f7420746865206f776e657260448201526064016109f8565b600080546001600160a01b038381166001600160a01b0319831681178455604051919092169283917f8be0079c531659141344cd1fd0a4f28419497f9722a3daafe3b4186f6b6457e09190a35050565b61131e6117c5565b6000805460ff60a01b1916600160a01b1790557f62e78cea01bee320cd4e420270b5ea74000d11b0c9f74754ebdbfc544b05a2586110753390565b600854600554611377916001600160a01b0391821691166000610eac565b600254600454611395916001600160a01b0391821691166000610eac565b6002546006546113b3916001600160a01b0391821691166000610eac565b6002546007546107d1916001600160a01b0391821691166000610eac565b6113d96117c5565b600854600954604051631c57762b60e31b81526004810191909152600060248201526001600160a01b039091169063e2bbb15890604401600060405180830381600087803b15801561142a57600080fd5b505af115801561143e573d6000803e3d6000fd5b5050600480546040516370a0823160e01b81523092810192909252600093506001600160a01b031691506370a0823190602401602060405180830381865afa15801561148e573d6000803e3d6000fd5b505050506040513d601f19601f820116820180604052508101906114b29190611ec0565b90508015610d4c576114c2611812565b60006114cc610573565b90506114d661114a565b42600a55337f9bc239f1724cacfb88cb1d66a2dc437467699b68a8c90d7b63110cf4b6f92410826115056108fe565b6040805192835260208301919091520160405180910390a25050565b60608282604051602001611536929190611f5c565b604051602081830303815290604052905092915050565b6060611006838360405180606001604052806025815260200161212660259139611b56565b60006115c7826040518060400160405280602081526020017f5361666545524332303a206c6f772d6c6576656c2063616c6c206661696c6564815250856001600160a01b0316610ff49092919063ffffffff16565b80519091501561088a57808060200190518101906115e59190611f3a565b61088a5760405162461bcd60e51b815260206004820152602a60248201527f5361666545524332303a204552433230206f7065726174696f6e20646964206e6044820152691bdd081cdd58d8d9595960b21b60648201526084016109f8565b6060824710156116a55760405162461bcd60e51b815260206004820152602660248201527f416464726573733a20696e73756666696369656e742062616c616e636520666f6044820152651c8818d85b1b60d21b60648201526084016109f8565b6001600160a01b0385163b6116fc5760405162461bcd60e51b815260206004820152601d60248201527f416464726573733a2063616c6c20746f206e6f6e2d636f6e747261637400000060448201526064016109f8565b600080866001600160a01b031685876040516117189190611f1e565b60006040518083038185875af1925050503d8060008114611755576040519150601f19603f3d011682016040523d82523d6000602084013e61175a565b606091505b509150915061176a828286611c30565b979650505050505050565b600054600160a01b900460ff166107d15760405162461bcd60e51b815260206004820152601460248201527314185d5cd8589b194e881b9bdd081c185d5cd95960621b60448201526064016109f8565b600054600160a01b900460ff16156107d15760405162461bcd60e51b815260206004820152601060248201526f14185d5cd8589b194e881c185d5cd95960821b60448201526064016109f8565b600480546040516370a0823160e01b815230928101929092526000916002916001600160a01b0316906370a0823190602401602060405180830381865afa158015611861573d6000803e3d6000fd5b505050506040513d601f19601f820116820180604052508101906118859190611ec0565b61188f9190611f8b565b6004546006549192506001600160a01b0391821691161461192d576002546040516338ed173960e01b81526001600160a01b03909116906338ed1739906118e4908490600090600c9030904290600401611fad565b6000604051808303816000875af1158015611903573d6000803e3d6000fd5b505050506040513d6000823e601f3d908101601f1916820160405261192b9190810190612039565b505b6004546007546001600160a01b039081169116146119c8576002546040516338ed173960e01b81526001600160a01b03909116906338ed17399061197f908490600090600d9030904290600401611fad565b6000604051808303816000875af115801561199e573d6000803e3d6000fd5b505050506040513d6000823e601f3d908101601f191682016040526119c69190810190612039565b505b6006546040516370a0823160e01b81523060048201526000916001600160a01b0316906370a0823190602401602060405180830381865afa158015611a11573d6000803e3d6000fd5b505050506040513d601f19601f82011682018060405250810190611a359190611ec0565b6007546040516370a0823160e01b81523060048201529192506000916001600160a01b03909116906370a0823190602401602060405180830381865afa158015611a83573d6000803e3d6000fd5b505050506040513d601f19601f82011682018060405250810190611aa79190611ec0565b60025460065460075460405162e8e33760e81b81526001600160a01b0392831660048201529082166024820152604481018690526064810184905260016084820181905260a48201523060c48201524260e4820152929350169063e8e3370090610104016060604051808303816000875af1158015611b2a573d6000803e3d6000fd5b505050506040513d601f19601f82011682018060405250810190611b4e91906120f7565b505050505050565b60606001600160a01b0384163b611bbb5760405162461bcd60e51b8152602060048201526024808201527f416464726573733a207374617469632063616c6c20746f206e6f6e2d636f6e746044820152631c9858dd60e21b60648201526084016109f8565b600080856001600160a01b031685604051611bd69190611f1e565b600060405180830381855afa9150503d8060008114611c11576040519150601f19603f3d011682016040523d82523d6000602084013e611c16565b606091505b5091509150611c26828286611c30565b9695505050505050565b60608315611c3f575081611006565b825115611c4f5782518084602001fd5b8160405162461bcd60e51b81526004016109f89190611d2e565b828054611c7590611e86565b90600052602060002090601f016020900481019282611c975760008555611cdd565b82601f10611cb05782800160ff19823516178555611cdd565b82800160010185558215611cdd579182015b82811115611cdd578235825591602001919060010190611cc2565b50611ce9929150611ced565b5090565b5b80821115611ce95760008155600101611cee565b60005b83811015611d1d578181015183820152602001611d05565b838111156108465750506000910152565b6020815260008251806020840152611d4d816040850160208701611d02565b601f01601f19169190910160400192915050565b600060208284031215611d7357600080fd5b5035919050565b60008060208385031215611d8d57600080fd5b823567ffffffffffffffff80821115611da557600080fd5b818501915085601f830112611db957600080fd5b813581811115611dc857600080fd5b866020828501011115611dda57600080fd5b60209290920196919550909350505050565b600060208284031215611dfe57600080fd5b81356001600160a01b038116811461100657600080fd5b6020808252825182820181905260009190848201906040850190845b81811015611e565783516001600160a01b031683529284019291840191600101611e31565b50909695505050505050565b60008060408385031215611e7557600080fd5b505080516020909101519092909150565b600181811c90821680611e9a57607f821691505b602082108103611eba57634e487b7160e01b600052602260045260246000fd5b50919050565b600060208284031215611ed257600080fd5b5051919050565b634e487b7160e01b600052601160045260246000fd5b600082821015611f0157611f01611ed9565b500390565b60008219821115611f1957611f19611ed9565b500190565b60008251611f30818460208701611d02565b9190910192915050565b600060208284031215611f4c57600080fd5b8151801515811461100657600080fd5b60008351611f6e818460208801611d02565b835190830190611f82818360208801611d02565b01949350505050565b600082611fa857634e487b7160e01b600052601260045260246000fd5b500490565b600060a082018783526020878185015260a0604085015281875480845260c0860191508860005282600020935060005b818110156120025784546001600160a01b031683526001948501949284019201611fdd565b50506001600160a01b03969096166060850152505050608001529392505050565b634e487b7160e01b600052604160045260246000fd5b6000602080838503121561204c57600080fd5b825167ffffffffffffffff8082111561206457600080fd5b818501915085601f83011261207857600080fd5b81518181111561208a5761208a612023565b8060051b604051601f19603f830116810181811085821117156120af576120af612023565b6040529182528482019250838101850191888311156120cd57600080fd5b938501935b828510156120eb578451845293850193928501926120d2565b98975050505050505050565b60008060006060848603121561210c57600080fd5b835192506020840151915060408401519050925092509256fe416464726573733a206c6f772d6c6576656c207374617469632063616c6c206661696c6564a2646970667358221220c7e8e68f4e83d0be081c0a494df87338c32eb0cba39435e74ca595615d04204b64736f6c634300080d0033",
  "linkReferences": {},
  "deployedLinkReferences": {}
}